:1000000000550020794A0100C36902004D4A0100F1
:100010004D4A01004D4A01004D4A01000000000018
:10002000000000000000000000000000F944010092
:100030004D4A010000000000A54401004D4A0100A6
:10004000A945010021970200A9450100A945010029
:10005000A9450100A9450100A9450100A9450100E4
:10006000E9960200A9450100A94501000797020091
:10007000A9450100A9450100A9450100A9450100C4
:10008000A9450100A9450100A9450100A9450100B4
:10009000A9450100A9450100A9450100A9450100A4
:1000A000A9450100A9450100A9450100A945010094
:1000B000A9450100A9450100A9450100A945010084
:1000C000A9450100A9450100A9450100A945010074
:0C00D000A9450100A9450100A945010057
:0400DC00FFFFFFFF24
:1000E00053B94AB9002908BF00281CBF4FF0FF319F
:1000F0004FF0FF3000F00CB8ADF1080C6DE904CE04
:100100000CF06CFDDDF804E0DDE9022304B070477B
:10011000704700BF2DE9F00791E8F807B2E8021038
:100120005B1854EB0C04B2E802104D4156EB0C0680
:10013000B2E802104F4158EB0C08B2E8021059EB3C
:1001400001095AEB0C0A80E8F80780410130BDE84C
:10015000F00770472DE9F00791E8F807B2E80210C0
:100160005B1A74EB0C04B2E802108D4176EB0C06BE
:10017000B2E802108F4178EB0C08B2E8021079EB7C
:1001800001097AEB0C0A80E8F80780414042BDE89B
:10019000F00770472DE9F007524290E87800B1E887
:1001A00080071740DB1918EA020854EB080419EA23
:1001B000020955EB09051AEA020A56EB0A0678C04D
:1001C00090E87800B1E8800717407B4118EA020800
:1001D00054EB080419EA020955EB09051AEA020A68
:1001E00056EB0A0678C080410130BDE8F007704741
:1001F0002DE9F007524290E87800B1E880071740F7
:10020000DB1B18EA020874EB080419EA020975EB13
:1002100009051AEA020A76EB0A0678C090E8780027
:10022000B1E880071740BB4118EA020874EB0804E4
:1002300019EA020975EB09051AEA020A76EB0A06C1
:1002400078C080414042BDE8F00770472DE9F001D9
:1002500052424FF0040890E8300091E8C000A31B20
:100260001340E41AF618EB1B1340ED1AFF1830C0C8
:10027000C0C1B8F10108EED1BDE8F001704700BF80
:1002800000B592E8DC072DE9DC07B1E8805702B43D
:10029000A7FB02510A95A8FB020BE7FB6310E9FBE1
:1002A00062B00B91A8FB0351EAFB6201E7FB64B566
:1002B000E7FB6605E8FB6615CDF830B0A9FB03B691
:1002C000EAFB6316ECFB6356E8FB640BE9FB641B7B
:1002D000EAFB645BECFB646B0D90ACFB0230059CAD
:1002E000EEFB6250E9FB6460EAFB64B0E7FB64315B
:1002F000E8FB6451069CE8FB6461E9FB64B1EAFB3E
:1003000064010E93A7FB0432079CE7FB6462E8FBE1
:1003100064B2E9FB6402EAFB6412049CE9FB6453E7
:10032000EAFB6463089CE7FB64B3E8FB6403E9FB56
:100330006413EAFB64230F955DF8049B99E80006BB
:10034000DDF80080A9FB0854EAFB68B4DDF81080F2
:10035000ECFB6804EEFB6814E9FB6824EAFB6834F4
:10036000DDF80480EEFB6865E9FB68B5EAFB68052B
:10037000DDF81480ECFB6815EEFB6825E9FB6835B9
:10038000EAFB68450F96DDF80880AEFB0876E9FBCE
:100390006806EAFB6816DDF81880ECFB6826EEFBC1
:1003A0006836E9FB6846EAFB6856DDF80C80ECFB32
:1003B00068B7EEFB6807E9FB6817EAFB6827DDF81A
:1003C0001C80ECFB6837EEFB6847E9FB6857EAFBEB
:1003D000686708B000BD00BF2DE9F14F87B0FFF797
:1003E0004FFFDDF81C8008F1200888E8FF00FFBC03
:1003F00087E87F08BDE8F08F00B591E89857A3FB28
:1004000003520195A3FB0401E3FB6420E3FB6710A7
:100410000292A3FB0752E3FB6802E4FB6415E3FBD3
:100420006805E3FB69250391A4FB07B6E3FB692696
:10043000E3FB6A56E4FB670BE4FB682BE3FB6A5BB8
:10044000E3FB6C6B0490A4FB0810E4FB6950E3FB36
:100450006C60E3FB6EB0E7FB6721E4FB6951E4FBF2
:100460006A61E3FB6EB1E4FB6E010592A7FB083203
:10047000E4FB6A62E4FB6CB2E4FB6E02E7FB6E1223
:10048000E7FB6853E7FB6963E4FB6CB3E7FB6C03D2
:10049000E7FB6E13E8FB6E230695A7FB0954E7FB09
:1004A0006AB4E7FB6C04E8FB6C14E8FB6E24E9FB20
:1004B0006E34E8FB6865E7FB6AB5E8FB6A05E8FBB4
:1004C0006C15E9FB6C25E9FB6E35EAFB6E4507967A
:1004D000A8FB0976E8FB6A06E9FB6A16E9FB6C26CD
:1004E000EAFB6C36EAFB6E46ECFB6E56E8FB69B73E
:1004F000E9FB6907E9FB6A17EAFB6A27EAFB6C3745
:10050000ECFB6C47ECFB6E57EEFB6E6700BD00BF6B
:100510002DE9F14F87B0FFF76FFFDDF81C8008F180
:10052000200888E8FF00FFBC87E87F08BDE8F08F5F
:1005300030B44FF0000310F8014B11F8015B013AA1
:1005400084EA050443EA0403F5D1A3F101034FEA69
:10055000D37030BC704700BF4FF0000310F8012B80
:10056000013943EA0203F9D1A3F101034FEAD37041
:10057000704700BF30B411F8014B12F8015B6C40BA
:1005800000F8014B013BF6D130BC70472DE9F00774
:1005900091E8F807B2E802105B1854EB0C04B2E8DB
:1005A00002104D4156EB0C06B2E802104F4158EBD9
:1005B0000C08B2E8021059EB01095AEB0C0A894108
:1005C000B3F1FF3374F1FF3475F1FF3576F10006B6
:1005D00077F1000778F1000879F101097AF1FF3A23
:1005E00051F100015B184C414D4156F1000657F1A5
:1005F000000758F1000859EBD1795AEB010A80E85D
:10060000F807BDE8F00770472DE9F00791E8F80713
:10061000B2E802105B1A74EB0C04B2E802108D41D0
:1006200076EB0C06B2E802108F4178EB0C08B2E8CA
:10063000021079EB01097AEB0C0A89415B184C41F5
:100640004D4156F1000657F1000758F1000859EBEB
:10065000D1795AEB010A80E8F807BDE8F007704746
:1006600018EB040859EB05095AEB060A5BEB070B7C
:100670005FF0000C4CF1000C18EB050859EB060973
:100680005AEB070A5BEB070B50EB0C005FF0000C1A
:1006900051EB0C0152EB0C0263414CF1000CB8EB36
:1006A000070879F100097AF1000A7BEB040BA841F5
:1006B000B141A241B3416CF1000CBBEB050BB04161
:1006C000B941AA41BB416CF1000C6FEAEC74B8EB84
:1006D000040879EB04097AEB040A7BF1000B70F152
:1006E000000071F1000172EBD472A3416CF1000CB7
:1006F00018EBEC7859EBEC795AEBEC7A5BF1000BE8
:1007000050F1000451F1000552EBDC7653EBEC772D
:100710004CF1000C18EBEC7059EBEC715AEBEC72ED
:100720005BF1000354F1000455F1000556EBDC7653
:1007300057EBEC77704700BF2DE9F14F87B0FFF71B
:100740009FFDDDF81080DDF81490DDF818A0FFF7AC
:1007500087FFBDE8000FFFF783FF03B05DF8048B50
:1007600088E8FF00BDE8F08F2DE9F14F87B0FFF773
:1007700043FEDDF81080DDF81490DDF818A0FFF7D7
:100780006FFFBDE8000FFFF76BFF03B05DF8048B50
:1007900088E8FF00BDE8F08F01480078704700004E
:1007A0002800002070B50CF0ECFE134C6FF027050C
:1007B00028B90CF01CFF10B90CF023FF20B10F4832
:1007C00060606570082010E00CF0B0FE40B90CF0DD
:1007D000B7FE28B90CF0CBFE10B90CF0DCFE30B13E
:1007E00006483130606065700420A07070BDE8215B
:1007F000742003F0C3FB000028000020EE0B010072
:10080000074991F90220904203DA91F901209042C0
:1008100001DC104670474968801A0856704700008E
:10082000280000202DE9F0411C4690460D46064662
:100830006FF01507042804D81CB10CF022FBA84265
:1008400002D83846BDE8F0810548424650F82600F7
:1008500018B14057824200DD024622700020F1E7C5
:10086000800C0020002819D003781349134A13B1D3
:10087000012B0ED011E00379012B00D06BB9437925
:100880000BB1012B09D18368643B8B4205D2C06850
:100890000EE00379012B02D00BB1002070474379A1
:1008A0000BB1012BF9D1C368643B8B42F5D2806850
:1008B0009042F2D8012070473D860100FF3F420F71
:1008C00010B5054C206810B1804700202060BDE8BD
:1008D000104002F0F9B80000300000202DE9F0418E
:1008E0000E46050004D000F047F8074600240BE050
:1008F0006FF01500BDE8F081204600F043F890F855
:10090000260030B1641CE4B2BC42F5D36FF00B009A
:10091000F0E72746FF2CF9D0204600F033F80446D4
:100920000CF07BFC84F828702146084802F0A4F8FB
:1009300084F82700202806D00120256284F82600AC
:1009400037700020D6E76FF02200D3E745CF0000D4
:1009500010B5820702D06FF00D0010BD054A11706E
:10096000506028B101EB41010A0100210CF0DFFECB
:10097000002010BD340000200148007870470000BE
:100980003400002005490A78904201D300207047C6
:10099000496800EB400001EB001070473400002074
:1009A0000E4910B591F82D00202812D091F82D0095
:1009B000A1F58062C0EBC00002EB800091F82D1021
:1009C0004068C1EBC10152F82120BDE8104004216C
:1009D000104740F68701702003F0D0FA94100020F1
:1009E00070B50546202A28D019481A4C00EB831C04
:1009F00003EB43030CEB42002344202922D00CEBF1
:100A0000410140784C784870204601460CEB41008B
:100A1000914205704078F8D193F82220202A1ABF1D
:100A20000CEB4202547083F8214020220CEB410C65
:100A30008CF8012083F8221070BD40F292217020C2
:100A400003F09CFA93F82040407883F82000DBE71D
:100A500014100020941000202DE9FF4F85B015469A
:100A60000C4602F0EBF9284420F07F410291206807
:100A7000401A0002C11700EB11600012002800F3B9
:100A8000F080DDF82080CA4808EB48010844039054
:100A900090F820502020C74EEA460DF104098DF849
:100AA0000000202D1CBFC44800EB881B39D000BFBC
:100AB000C5EBC50006EB800000F10801C06827689F
:100AC000381A0002C21700EB1260001229D4E08924
:100AD00000B3C889F0B90868049003F0C3F8B0F512
:100AE000C67F08BF0D200BD0A0F54070563808BF58
:100AF0001C2005D0A0F500709F3814BF00203220C4
:100B0000411C0498381A0002C21700EB1260001250
:100B1000884206DB0BEB45008AF800504578202D13
:100B2000C6D19AF8000089F80000202D1CBFA24809
:100B300000EB881B00F03881C5EBC50006EB800791
:100B40006068D7F8088007F10801A8EB00000002F0
:100B5000C21700EB1260001227D4C889002800F0E9
:100B60002381E089002840F01F81D4F800A003F021
:100B700079F8B0F5C67F08BF0D200BD0A0F5407006
:100B8000563808BF1C2005D0A0F500709F3814BF50
:100B900000203220411CA8EB0A000002C21700EB23
:100BA00012600012884280F2FF8089F80050397E7E
:100BB000207C814206D90BEB45004578202DBBD126
:100BC00000F0F2B89DF80400C0EBC00006EB800016
:100BD000C18AC568E1BBE189D1B3876803F042F8F7
:100BE000B0F5C67F08BF0D200BD0A0F54070563879
:100BF00008BF1C2005D0A0F500709F3814BF00204E
:100C00003220411CE81B0002C21700EB12600012E8
:100C100088421DDA03F026F8B0F5C67F08BF0D2024
:100C20000BD0A0F54070563808BF1C2005D0A0F5A9
:100C300000709F3814BF002032209DF80410401C23
:100C4000C1EBC10106EB81018968084420F07F45B2
:100C50000298281A0002C11700EB11600012002848
:100C600003DD09B00020BDE8F08FD4E90010401A80
:100C7000284425F07F4120F07F40C4E90010089807
:100C800004900398EA460DF1040890F820502020C3
:100C90008DF80000202D3CD04748049900EB811BC3
:100CA000C5EBC50006EB800000F10801C0682768AD
:100CB000381A0002C21700EB1260001229D4E08932
:100CC00000B3C889F0B9D1F8009002F0CBFFB0F5BD
:100CD000C67F08BF0D200BD0A0F54070563808BF66
:100CE0001C2005D0A0F500709F3814BF00203220D2
:100CF000411CA7EB09000002C21700EB12600012B2
:100D0000884206DB0BEB45008AF800504578202D21
:100D1000C6D19AF8000088F800000498202D1CBF66
:100D2000254901EB801B3FD0C5EBC50006EB8007D2
:100D30006168D7F8089007F10800A9EB01010902E2
:100D4000CA1701EB1261091222D4C08960B3E0898D
:100D500050BBD4F800A002F085FFB0F5C67F08BFF5
:100D60000D200BD0A0F54070563808BF1C2005D0D0
:100D7000A0F500709F3814BF00203220411CA9EB61
:100D80000A000002C21700EB1260001288420BDA60
:100D900088F80050387E217C88427FF613AF0BEB39
:100DA00045004578202DBFD109B00120BDE8F08F66
:100DB00094100020940C0020141000202DE9F84F0E
:100DC0000F46064601EB47004B49994608449246B8
:100DD00090F8204020201070A1F58068202C1CBFC6
:100DE000464800EB871B38D0C4EBC40008EB8000FA
:100DF00000F10801C0683568281A0002C21700EB2C
:100E00001260001229D4F08900B3C889F0B90868CB
:100E1000009002F027FFB0F5C67F08BF0D200BD071
:100E2000A0F54070563808BF1C2005D0A0F5007012
:100E30009F3814BF00203220411C0098281A00025D
:100E4000C21700EB12600012884206DB0BEB440075
:100E50008AF800404478202CC6D19AF8000089F81E
:100E60000000202C1CBF254800EB871A40D000BF93
:100E7000C4EBC40008EB80077068BD6807F1080187
:100E8000281A0002C21700EB1260001222D4C8898F
:100E900070B3F08960BBD6F800B002F0E3FEB0F5A5
:100EA000C67F08BF0D200BD0A0F54070563808BF94
:100EB0001C2005D0A0F500709F3814BF0020322000
:100EC000411CA5EB0B000002C21700EB12600012E0
:100ED00088420DDA89F80040387E317C884202D899
:100EE0000020BDE8F88F0AEB44004478202CBFD1E5
:100EF0000120BDE8F88F000094100020141000209D
:100F00002DE9F04182B0054614468846D08901AAF1
:100F1000694601F0AFFF02F0D7FC01F08FFF0746F2
:100F2000204890F82D10202904D0C068401D20F0E2
:100F30007F4124E0E08905F10906B0B102F0A6FF87
:100F400098B902F08FFEB0F5C67F08BF0D200BD018
:100F5000A0F54070563808BF1C2005D0A0F50070E1
:100F60009F3814BF002032200644B8F1000F04D18E
:100F70000098874284BF381A064426F07F41D4E99E
:100F80000020801A084420F07F40C4E90010A942E4
:100F900024BF02B0BDE8F081A068401CA06002B090
:100FA000BDE8F081941000202DE9F04F97B017466E
:100FB0008B46054602F0F0F9044602F085FC064631
:100FC000BBF1010F18BFBBF1020F05D040F65D1158
:100FD0004FF0700002F0D2FFF84901200860F84994
:100FE0008968086000208DF84E000C90401E0D901E
:100FF000F449C7EBC70001EB800000F108010DF1D7
:10100000380891E80E1088E80E10806912900EA83A
:1010100000F0C4FB0790EC48BDF84680808BADF82B
:101020004C00B8F1000F04BF002006900BD0012047
:101030000690E54890F82A0028B902F027FF00281A
:1010400008BF012700D0002702F00CFEB0F5C67FD4
:1010500008BF0D200BD0A0F54070563808BF1C20EB
:1010600005D0A0F500709F3814BF002032204FF04B
:101070000009CA460B90464538D90799DFF84C93CA
:101080006FEA060C6B4616AA01EB0C00494504D921
:1010900040F26F51702002F071FFCD498C4504DDA4
:1010A0004FF4AE61702002F069FFCA498C4504DA42
:1010B00040F27151702002F061FFC7498142DCBFEC
:1010C00000F5F700A0F1F85005DD0028BCBFA0F541
:1010D000F70000F1F850194601F0CCFE00980E9987
:1010E00020F07F400090081A20F07F49002F18BFA1
:1010F000DDF82CA005D19DF84C00002818BF4FF05A
:10110000020AB4F1807F08D00E98001B0002C117BC
:1011100000EB11600012012801DA03200DE057B145
:10112000A94890F82B0030B19DF84C0010F1000A4E
:1011300018BF4FF0020A2546002082440E98A0EB0B
:10114000090020F07F42501E20F07F40411B090221
:10115000CB1701EB13610912514504DBB9F1000F04
:1011600018BF0E922DE0B9F1000F05D09DF84D008B
:1011700020B902F09FFB08B1AFB90CE02FB99DF880
:101180004C00002818BFAAF1020A4FF000098DF8A0
:101190004C904E4607E09DF84C0020B100208DF8A1
:1011A0004C00AAF1020A0E98A0EB0900401E20F0A4
:1011B0007F40411B0902CA1701EB12610912514518
:1011C0007EDB149705464FF00009069F01F0BCFF37
:1011D000281A0002C11700EB11604FEA202A02F022
:1011E00041FDB0F5C67F08BF0D200BD0A0F54070C3
:1011F000563808BF1C2005D0A0F500709F3814BFDA
:10120000002032200B30824520DABBF1010F02D0E2
:10121000149840B112E0B4F1807F1CD140F6DE0199
:10122000702002F0ABFEB4F1807F07D0601B00029B
:10123000C11700EB11600012042804DD2C46204683
:1012400001F0A8FF07E0002863DC04E02C462046FC
:1012500001F0A0FFB946B4F1807F55D00E980F9AE7
:10126000001B121B20F07F4022F07F42012850D348
:10127000B0F5000F98BFB2F5000F4AD820460CF029
:1012800070F80799524A0D1A4FF0000AAA1A7AF11B
:10129000000218D34E4B421AD31A7AF1000312D32C
:1012A0004A4BAB423EBFC0F5902000F1F4504518C8
:1012B00009D3934231D2C1F5902101F1F45100E0FC
:1012C00027E008444542404FB87F58B3BBF1010FB7
:1012D00005D0022002F09AF9012002F097F9B045FA
:1012E0002CD2A5EB06014FF0020002F0D9F890B322
:1012F000B8F1000F1CBFA5EB0801012034D000BFDE
:1013000002F0CEF838B32FE040F6F111702002F071
:1013100035FE17B00020BDE8F08F40F6C2217020E6
:1013200002F02CFEB04534BF304640461E30A84285
:10133000CCDB40F60521702002F020FE0CD9A5EB95
:101340000801012002F0ACF828B1002E1CBFA91B37
:10135000022009D0D4E730E056EA080004D040F675
:101360004111702002F00AFE2946002002F098F890
:1013700018B306980126002804BF97F82B00002810
:1013800002D0B9F1000F33D097F82A0018B102F05B
:101390006FFC87F82AA0B9F1000F2CD00B98201A07
:1013A00020F07F41052002F07BF8E0B397F82B0096
:1013B000002808BF87F82B6025E00FE008050040F3
:1013C0003C000020940C002094100020FF7F841E1D
:1013D0000040420F00C0BDF00080841E022002F0D9
:1013E00015F9012002F012F917B00020BDE8F08FC6
:1013F00097F82A0090B197F82B0020B1052002F051
:1014000005F987F82BA0A5EB0800A0F11901002928
:101410000FDC40F62E21702002F0B0FD02F044FCFB
:1014200087F82A60B7E7FFE740F2F221702002F068
:10143000A5FD032002F034F8C0B10F488068C0F861
:1014400000A00E48C0F800A00CAC94E80F00386073
:101450007960BA60FB6010AC94E80F003861796184
:10146000BA61FB6117B00120BDE8F08F40F636216C
:10147000702002F083FD00003C00002008050040C1
:101480002DE9F05F064608789074C87A5074887A1F
:1014900010740889D081DFF8988170689A46A0FBA3
:1014A000087914460D4630680BF05BFFC1192878A7
:1014B0004FEA680C49F10002A8F1010ECCF1000BD3
:1014C00068B1E089677CC043D5F8049004F10C0250
:1014D00060455FDD4FF4AE61702002F04FFDDFF834
:1014E0005491D5E9040311EB090A42F10009B0EB6C
:1014F0000A0A73EB090945D2411A73EB020141D381
:10150000C71B7068A060474505D3401CA7F1F4577E
:10151000A7F59027A060E0896D68C143667C7818C4
:1015200004F10C02774504D940F26F51702002F0AB
:1015300025FD6145CEDC59452FDB8045DCBF00F53C
:10154000F700A0F1F85005DD0028BCBFA0F5F700BA
:1015500000F1F850214601F08DFC206820F07F4119
:101560007819401C2160002E08BF7A3003D0012E6C
:1015700008BF483034D101F061FC20F07F4060604A
:10158000BDE8F09F3068401E20F07F40206000F5ED
:101590007A70F4E70146584504DA40F27151702040
:1015A00002F0ECFC8045DCBFA1F1F450A0F59020E6
:1015B00005DD0028BCBF01F1F45000F59020214664
:1015C00001F058FC2068002F20F07F4109F1010054
:1015D000216008BF7A3008D0012F08BF483004D0FE
:1015E00040F22461702002F0C9FC01F027FC20F0D9
:1015F0007F4161607068A060002122463068FFF77B
:101600007FFC3268534621462869FFF725FA0028F7
:1016100018BFBDE8F09FD4E900213068891A20F096
:101620007F42084420F07F40C4E90020BDE8F09FDD
:101630000080841E0040420F70B51E4D95F82D00AD
:10164000202818BF70BD95F82C2002EB42002844DA
:1016500090F82040202C27D0174B03EB821101EB90
:101660004401497880F82010FF2085F8290085F88A
:101670002D402146022000F0CBF8002085F82800FC
:10168000A8770E49C4EBC40001EB8000007E00285F
:1016900008BF02F0CDFD002009494968002908BFB4
:1016A00070BDBDE8704008474FF44B71702002F0E8
:1016B00065FC00009410002014100020940C002001
:1016C0003C0000202DE9F05FDFF8C08098F82C5036
:1016D00005EB4500404490F82140202C08BFBDE8B0
:1016E000F09FDFF8ACB0DFF8ACA0AAF560790AEBA8
:1016F0008517072617F8140001280ED0042808BF04
:1017000002260AD005280CBF0326062805D040F67D
:10171000A8014FF0700002F031FCBBF1000F18BFC0
:10172000AFF30080EFF3108072B607EB44014A7804
:1017300005EB4501414481F8212091F82220A24285
:1017400004BF202281F82220C0B12A462146012070
:1017500000F05EF8C4EBC40109EB810059F82120C8
:1017600040683146904798F82C5005EB45004044BE
:1017700090F82140202CBAD1BDE8F09F06480028FF
:1017800018BFAFF3008062B6DFE7000094100020BE
:1017900000000000141000200000000010B50446F6
:1017A00000680BF0DEFD0246E089217B144B084403
:1017B000411C50189A4204D940F26F51702002F037
:1017C000DDFB104A914204DD4FF4AE61702002F05F
:1017D000D5FB0D4A914204DA40F27151702002F0BB
:1017E000CDFB0A498142DEBF00F5F700A0F1F850B9
:1017F00010BD0028BCBFA0F5F70000F1F85010BDE7
:10180000FF7F841E0040420F00C0BDF00080841E98
:10181000DFF858C010B500230CEB821C07281FD23C
:10182000DFE800F0050505050404040001230CF8B9
:101830001100002B08BF10BD02EB42020C4802440D
:1018400092F8220020280EBF82F821100CEB4000F5
:10185000417020200CEB4103587082F8221010BD1B
:101860004FF41A71702002F089FB00001410002060
:10187000941000202DE9F74F1746DFF858A102EB2E
:1018800047005044884690F820400129254618BF5B
:10189000B8F1020F05D040F66C214FF0700002F055
:1018A0006DFB4FF0000B202D44D09AF81E0000264F
:1018B000002808BF022601F047FC474BC4EBC401D7
:1018C00003EB81018A68C968121A091A22F07F4263
:1018D00021F07F41964299BFB2F5000FB1F5000F9C
:1018E0003E4A02EB871923D9224609EB42014C7884
:1018F000202C15D0C4EBC40103EB810CDCF80810DC
:10190000DCF80CC0091A21F07F41ACEB000C2CF084
:101910007F4C8E429CBFB1F5000FBCF5000FE3D8A1
:10192000202A05D03B4620210420FFF759F8044621
:10193000AC420FD19AF82E0020280FD00099DAF887
:101940000800891C081A0002C11700EB1160001280
:10195000002803DD03B00020BDE8F08F202D16D055
:101960002A4641460098FFF71FFB00281FBF8AF850
:101970002E50022003B0BDE8F08F3B462A462021BE
:101980000420FFF72DF803B00020BDE8F08F9AF88F
:101990002A0018B102F06CF98AF82AB09AF82B00E4
:1019A00020B1052001F032FE8AF82BB0042001F0AE
:1019B0002DFE01F09BFE20208AF82E00084880684A
:1019C000C0F800B00748C0F800B003B00120BDE87F
:1019D000F08F000094100020940C002014100020C0
:1019E0003C00002008050040064910B591F82D2064
:1019F000202A1CBF887710BD40F27A31702002F097
:101A0000BDFA0000941000202DE9F04F694E074602
:101A10008DB096F82D008846202855D096F82D00D8
:101A200006F10804C0EBC000A6F5806909EB800A46
:101A300020208DF8200096F82C000AAA00EB400028
:101A4000304409A990F82050F0680290306838447A
:101A500001F010FADAF80C000999652F084438D320
:101A6000554A0021D21B71EB010232D32268821A3F
:101A700022F07F42B2F5000F2BD820F07F4060604B
:101A8000304684F8108090F82C000DF1200A202DAB
:101A90001CBF4A4901EB801B50D000BFC5EBC500FD
:101AA00009EB80086168D8F8086008F10800711A2D
:101AB0000902CA1701EB126109122DD4C08900284E
:101AC0003CD0E08948B139E04FF43361702002F036
:101AD00055FA0DB00120BDE8F08F20680C9002F09F
:101AE000C1F8B0F5C67F08BF0D200BD0A0F540703F
:101AF000563808BF1C2005D0A0F500709F3814BFD1
:101B000000203220411C0C98301A0002C21700EB52
:101B100012600012884211DA8AF8005098F8181002
:101B2000207C814205D8029860600DB00220BDE89B
:101B3000F08F0BEB45004578202DAFD1052001F04B
:101B400065FD1C4C4FF0FF30606094F82C309DF820
:101B500020202021202A03D00520FEF741FF04E0A9
:101B600003EB4300204490F8200094F82C20134904
:101B700001EB821194F82D2001EB4201487020689E
:101B800038442060FF2084F82900607E012805D1B8
:101B9000E068401E20F07F4001F09CFB9DF8200093
:101BA000202803D00648407802F0BCFA0DB000208F
:101BB000BDE8F08F941000200040420F1410002068
:101BC0003C00002070B5244A92F82D1020293AD00C
:101BD00092F82D10A2F58063C1EBC10103EB810CDB
:101BE00092F82C1092F82C4001EB4101114491F82D
:101BF0002010A2F1800505EB8414202928D0C1EB28
:101C0000C10503EB85052D7E854284BF04EB4101B0
:101C10004978F2D8C1EBC10103EB8101DCF80C007B
:101C200089681468081A0002C11700EB11600012DD
:101C300007D40BF096FB04F16501884224BF001B1A
:101C400070BD002070BD40F60231702002F096F9A0
:101C50004FF0FF3070BD000094100020064810B512
:101C600090F82D1020291CBF007E10BD40F62A31AF
:101C7000702002F083F9000094100020C0EBC00136
:101C800070B50748074A00EB810001690830A1FBE5
:101C90000245FFF783FD001945F1000170BD00000A
:101CA000940C00200080841EF8B56B4D6B4A05F53E
:101CB0008064012694F82A1008287CD2DFE800F01E
:101CC000047097A9C741AEB319B901F0EDFF84F8CC
:101CD0002A60E08A10B102F0D9F880B1FFF7ACFCBD
:101CE000FF2084F827006168B1F1FF3F03D0052091
:101CF00001F0D6FB40B1607E012810D109E040F62A
:101D00003401702002F03AF940F63901702002F0F7
:101D100035F9E068401E20F07F4001F0DBFA94F8CE
:101D20002D0094F82D10C0EBC00005EB800040683A
:101D3000C1EBC10155F8212001B00121BDE8F040FF
:101D4000104794F82B0040B119B901F0ADFF84F8A9
:101D50002A60002084F82B00F8BDFFF76DFC4FF0DF
:101D6000FF30606094F827008DF800009DF80000B7
:101D700088B194F82D0094F82D10C0EBC00005EB4D
:101D800080004068C1EBC10155F8212001B0062157
:101D9000BDE8F04010474FF40561702002F0EEF806
:101DA000FFF74AFC84F8266002F070F820B194F83E
:101DB0002A0030B109E04AE040F65E01702002F0EE
:101DC000DDF801F071FF84F82A6094F82D0094F892
:101DD0002D10C0EBC00005EB80004068C1EBC101D5
:101DE00055F8212001B00021BDE8F040104701F076
:101DF0004DFDE08A10B102F049F828B101F05AFD1A
:101E0000002818BF6677F8BD40F66801702002F020
:101E1000B5F81348066090680660F8BD1078BDE814
:101E2000F84002F07FB9FFF707FC94F82D0094F812
:101E30002D10C0EBC00005EB80004068C1EBC10174
:101E400055F8212001B00521BDE8F040104740F6CB
:101E50007B01702002F092F8940C00203C000020DE
:101E6000080500402DE9F34F8246F04895B0006820
:101E7000EF4DC005C00D0ED0103840B20028B8BFDD
:101E800000F00F0000F1E020ACBF90F8000490F8E3
:101E9000140D40090DD016984FF0000B0078002863
:101EA00018BF012818D040F204714FF0700002F002
:101EB00065F895F82D004FF0010B202807D01698F3
:101EC000007848B14FF4E061702002F057F840F21A
:101ED000FD61702002F052F8D64C24B1002140F28E
:101EE0000770AFF300800020CDE91000D249CAEBA3
:101EF000CA0001EB80004FF00109009024B10021DD
:101F000040F21270AFF30080B9F1000F0AD000BFA9
:101F100095F82C604FF0000885F82980BBF1000F80
:101F200007D038E0C548002818BFAFF3008062B67C
:101F3000EEE73746012020EA0706C148402200EBC1
:101F4000871100EB86100BF078FB24B1002140F2E2
:101F50002F50AFF3008007EB470106EB4600294402
:101F600028440A8C028491F8221080F8221024B1AF
:101F7000002140F23350AFF3008024B1002140F241
:101F80001C70AFF3008095F829008DF808009DF8CB
:101F900008000028B2D124B1002140F22670AFF32E
:101FA000008002A801F0D6F8DDE90201CDE90E01BA
:101FB000334609AA0EA81699FFF762FA24B1002148
:101FC00040F22D70AFF300809D4A0E9902EB861708
:101FD00009A817F81A20012A18BF022A38D1099A2D
:101FE0000A9BA2EB010222F07F42A3EB0101CDF894
:101FF000448021F07F41022A64D3B2F5000F98BFDC
:10200000B1F5000F5ED84FF0010814AB13AA3146AA
:10201000FEF7D4FE00285DD09DF84C109DF85020AE
:1020200033468A425AD00520FEF7DAFC07EB4A0114
:1020300048709DF84C0020281CBF07EB400080F83A
:1020400001A057D0324651465FF00300FFF7E0FB96
:1020500024B1002140F23270AFF3008079480028AB
:1020600018BFAFF30080EFF3108972B624B10021DE
:102070004FF4E760AFF3008095F829008DF8080071
:102080009DF8080000287FF439AF24B100214FF4F7
:10209000E860AFF3008009AF009897E80E1000F1F8
:1020A0000807B8F1000F87E80E100D99816153D031
:1020B00024B1002140F24D70AFF30080BBF1000F5E
:1020C0003AD11FE0324651460420FFF7A1FB4FF002
:1020D0000108BDE7324651460420B7E7202919BF61
:1020E00007EB4100407806EB4600284408BF90F813
:1020F00020009BE706EB4601294481F820A0CDF89B
:1021000044809FE7119810F0FF0F15D095F82D002F
:10211000202811D124B1002140F25270AFF3008089
:10212000324602210E98FFF7A5FB109020B91698B1
:102130000078F0B101282BD024B1002140F26F705B
:10214000AFF30080FF20BBF1000F18BF85F8290016
:1021500027D000BF4FF0010824B100214FF4F060F8
:10216000AFF300801098384E022823D0012829D0E0
:102170002DE024B1002140F25A70AFF3008095F8B1
:102180002C2051460420FFF743FB4FF00108E3E702
:10219000002C3FF4B3AE002140F26570AFF3008035
:1021A000ACE695F82C200121914385F82C1085F898
:1021B0002900CFE7A8680E99401A0BF0D2F8716891
:1021C00021B904E071684FF0FF3001B18847B9F1DF
:1021D000000F24D024B100214FF4F260AFF300804F
:1021E000B8F1000F11D095F82C0000EB4000284406
:1021F00090F82100202808D024B1002140F29770E7
:10220000AFF30080707801F08DFF24B1002140F21F
:102210009C70AFF3008017B04046BDE8F08F0748D0
:10222000002818BFAFF3008062B6D3E704ED00E0EA
:102230009410002000000000940C0020000000001A
:1022400014100020000000003C0000202DE9F14F98
:10225000C9488AB00068C005C00D11D0103840B21E
:102260000028B8BF00F00F0000F1E020ACBF90F8EC
:10227000000490F8140D400908BF4FF0010B01D085
:102280004FF0000B0A98007800281EBF00200BB00A
:10229000BDE8F08F4FF0000AB84DB94CD14625B1DA
:1022A000002140F2B950AFF3008094F82C6084F81C
:1022B00029904FF0000825B1002140F2BE50AFF345
:1022C0000080BBF1000F23D13746012020EA07062A
:1022D000AC48402200EB871100EB86100BF0ADF903
:1022E00025B1002140F22F50AFF3008007EB4701EA
:1022F00006EB4600214420440A8C028491F8221007
:1023000080F8221025B1002140F23350AFF3008055
:1023100025B1002140F2C650AFF3008008A800F0BC
:1023200019FFDDE90801CDE9060133466A4606A832
:102330000A99FFF7A5F825B1002140F2CC50AFF380
:10234000008094F82D00202819D0E0680099091A1F
:102350000902CA1701EB1261091210D5DDE900214B
:10236000891A20F07F43084420F07F40CDE90030F7
:10237000934202D20298401C02904FF001084DB1E6
:10238000002140F2DF50AFF30080002140F2E55021
:10239000AFF3008000990698019A091A101A21F0EB
:1023A0007F4120F07F40B1F5000F98BFB0F5000FDE
:1023B00003D8BBF1000F0CD103E0BBF1000F39D003
:1023C000C0E0334669467048069AFEF745FB48EA86
:1023D0000008B8F1000F23D000980AF0C2FFBDF842
:1023E0000E109DF80C20694B1144491C421898426C
:1023F00056D8654881427CDC404281427ADB581CD9
:102400009042DCBF02F5F702A2F1F85205DD002A86
:10241000BCBFA2F5F70202F1F8520A98C0E90429FC
:102420004FF0010A002D7CD000214FF4BF60AFF3C4
:10243000008087E007980290BDF80E0008AA05A961
:10244000DDF8188000F016FD01F03EFA00F0F6FC11
:10245000074694F82D00202827D0E068401D20F082
:102460007F4000BFDDE90021891A0090084420F078
:102470007F4001900098404502D20298401C029093
:102480001F208DF80C0000980AF06BFFBDF80E10AD
:102490009DF80C203D4B1144491C421898422AD902
:1024A00040F26F51702001F069FDBDF80E0008F197
:1024B0000906B0B101F0EAFC98B901F0D3FBB0F520
:1024C000C67F08BF0D200BD0A0F54070563808BF5E
:1024D0001C2005D0A0F500709F3814BF484632205C
:1024E00006440598874284BF381A064426F07F4088
:1024F000B8E703E00AE02448814204DD4FF4AE610E
:10250000702001F03BFD2248814204DA40F2715113
:10251000702001F033FD1F489042D8BF02F5F7024A
:1025200000E00FE0D8BFA2F1F85205DD002ABCBFE1
:10253000A2F5F70202F1F8520A984FF0010AD046CC
:10254000C0E904291AEA080F09D00A981149029B28
:10255000D0E90420E3FB01200A99C1E9042094F8A2
:1025600029008DF814009DF8140000287FF497AE20
:102570000BB05046BDE8F08F04ED00E00000000015
:1025800094100020141000200040420FFF7F841E92
:1025900000C0BDF00080841E2DE9F14F944D8CB039
:1025A00095F82C000020099006900120A5F18009E3
:1025B0004FF0000807468F4CCDF81C0000F0C4FD1A
:1025C000089024B100214FF4F660AFF30080079823
:1025D00000283CD085F8298024B1002140F2B57054
:1025E000AFF3008095F82CA0402227EA0A0609EBF9
:1025F000861009EB8A1183460BF01FF824B10021E5
:1026000040F22F50AFF3008006EB46000AEB4A0180
:102610002844294400900A8C028491F8221080F802
:10262000221024B1002140F23350AFF3008095F81E
:1026300029008DF808009DF8080078B1002C1CBF17
:10264000002140F2BB70B9D0AFF30080B6E76A4812
:10265000002818BFAFF3008062B6BBE724B10021A9
:1026600040F2BF70AFF300800C981BF810000328F5
:102670007DD1009A0C9992F82000884214BF4FF047
:10268000000A4FF0010A02F1200C8346202209EBD8
:10269000861303E0024603EB42004078884202D0F2
:1026A00020280AD0F6E7202807D0834507D103EB7E
:1026B0004B0040788CF8000007E040460CE003EB4C
:1026C000400003EB42014078487024B1002140F201
:1026D0009A40AFF300803846C34610EA0A0F18BF8D
:1026E000BB4600284FD024B1002140F2C470AFF3A4
:1026F0000080324601200C99FFF78AF824B10021AE
:1027000040F2CD70AFF300803C48002818BFAFF313
:102710000080EFF3108072B6079024B1002140F2E0
:10272000D270AFF3008095F829008DF808009DF86D
:10273000080038B1002C1CBF002140F2D6703FF4D5
:102740003DAF81E7BBF1000F0AD095F82D0020289E
:1027500006D1324602210898FFF78CF80690F8B1AE
:1027600024B1002140F2EA70AFF3008000E00AE0FB
:1027700095F82C0027EA000085F82C00FF2085F84A
:1027800029000120099024B1002140F2F370AFF339
:10279000008006981A4E022809D001280FD013E0B5
:1027A00094B1002140F2E570AFF30080ECE7A96836
:1027B0000898081A0AF0D5FD716821B904E071681B
:1027C0004FF0FF3001B18847079848B124B100218C
:1027D00040F60700AFF3008009980DB0BDE8F08F18
:1027E0000548002818BFAFF3008062B6EEE700008E
:1027F0009410002000000000000000000000000015
:102800003C00002010B5202811D20E4991F82C3040
:10281000A1F1800202EB831C1CF810303BB191F84F
:102820002C3002EB831212F81020012A01D0002074
:1028300010BD91F82C2001460020FEF7E9FF012091
:1028400010BD0000941000202DE9F84F864E804600
:1028500096F82C00A6F1800707EB801010F81800FE
:10286000002871D096F82C90804D25B1002140F6BB
:102870007630AFF3008007EB891414F818000128B4
:1028800018D0C0B204281CBF0528062861D02DB17D
:102890004FF0000140F68230AFF3008001F098FC69
:1028A00025B1002140F68630AFF3008014F81800FF
:1028B0000128E6D1012425B1002140F68D30AFF387
:1028C0000080002C4BD0002086F8290025B1002183
:1028D00040F69230AFF3008096F82CB0012020EA49
:1028E0000B0907EB8B1107EB891040220AF0A5FEBC
:1028F00025B1002140F22F50AFF3008009EB4900D1
:1029000000EB060A0BEB4B003044018CAAF82010B8
:1029100090F822008AF8220025B1002140F23350BD
:10292000AFF3008096F829008DF800009DF80000B4
:10293000E0B1002D1CBF002140F69830BBD000BF95
:10294000AFF30080B7E7FFE740F66D31702001F08C
:1029500015FB4A4641460120FEF75AFFA0E74448CE
:10296000002818BFAFF3008062B6ACE725B10021A4
:1029700040F69C30AFF300809AF821300AF1210133
:1029800040461C464FF0200B07EB89120AF1220A41
:1029900004E0A34602EB4B0C9CF80140844202D0B9
:1029A000202C2BD0F5E7202C28D0A34204D102EB19
:1029B00043004078087005E002EB440002EB4B0155
:1029C00040784870BAF1000F11D025B1002140F2D3
:1029D0009240AFF300809AF80000A04207D125B1E1
:1029E000002140F29540AFF300808AF800B05DB15D
:1029F000002140F29A40AFF3008000E025B10021B1
:102A00004FF43A60AFF300801A48002818BFAFF3C4
:102A10000080EFF3108472B696F829008DF800005C
:102A20009DF8000038B1002D1CBF002140F6A630F3
:102A30003FF441AF84E786F82C90FF2086F8290008
:102A400054B1002D08BFBDE8F88F002140F6B33027
:102A5000AFF30080BDE8F88F0548002818BFAFF33A
:102A6000008062B6EDE70000941000200000000036
:102A7000000000000000000070B50D46064601F0A1
:102A8000F3F90F4890F82C200024803800EB8210D6
:102A900010F8141029B1611CCCB2202CF8D32020DE
:102AA00070BD0848C4EBC40140F8216000EB810010
:102AB000214645600120FEF7ABFE204670BD0000B8
:102AC00094100020940C00202DE9F84F00F03CFBFE
:102AD000054600F00BFE604C6068B0F1FF3F1CBF84
:102AE0004FF0FF306060A07F5C4F90B9D4E90210D6
:102AF000401A20F07F404FF40C710AF05DFCE16851
:102B00000844281A0002C11700EB11600012C00F20
:102B100012D0607E20B394F827008DF800009DF855
:102B20000000E8B100F03EFC94F82800F0B140F25B
:102B3000D531702001F022FA94F82D0094F82D1070
:102B4000C0EBC00007EB80004068C1EBC10157F843
:102B500021200821904740F2BD31702001F00EFA8B
:102B6000E81C20F07F4000F015FBDDE7012084F831
:102B7000280094F82D00202821D094F82D902020B2
:102B800084F82D0084F82E00002684F8266084F84E
:102B90002760266000F09EFE207794F82C8008EBDA
:102BA000480000EB040A9AF82000202812D0C0EB5D
:102BB000C00007EB8000817E012905D00AE04FF4B8
:102BC0007671702001F0DAF900F10802012128463F
:102BD000FEF796F9424601212846FEF74BFE070014
:102BE000F8D01F4800EB881010F81900022804D113
:102BF000424649460620FEF70BFEFF2084F82900D6
:102C00009AF82100DFF85C8020281CBF98F80100AA
:102C100001F088FA207F18B100F038FE2677667739
:102C2000022F0FD0012F18BFBDE8F88F4FF0FF30F3
:102C3000D8F80410002908BFBDE8F88F01B0BDE83E
:102C4000F04F0847A068401B0AF08BFBD8F804102F
:102C50000029F3D1BDE8F88F94100020940C0020D7
:102C6000141000203C00002030B5364C054683B0DF
:102C700094F82D00202808D06068B0F1FF3F09D0FB
:102C800040F6A121702001F079F94FF42A617020FB
:102C900001F074F994F82D002B49C0EBC00001EB52
:102CA00080000830FEF77AFD0146284A2844914208
:102CB00004D940F26F51702001F060F924498D422F
:102CC00004DD4FF4AE61702001F058F921498D42C6
:102CD00004DA40F27151702001F050F91E4981422E
:102CE000DCBF00F5F700A0F1F85005DD0028BCBFFF
:102CF000A0F5F70000F1F85001AA694600F0BAF813
:102D00009DF804000F288CBF012000200099084482
:102D100020F07F41616094F827008DF800009DF855
:102D20000000002804BF03B030BD052000F0B8FB50
:102D300000281CBF03B030BD40F6A821702001F070
:102D40001DF9000094100020940C0020FF7F841EC9
:102D50000040420F00C0BDF00080841E70B51C4CC6
:102D6000202184F8201084F8211084F822100020FB
:102D700084F82C0084F82D10421EC4E90002A077CC
:102D800084F8260084F827002077607784F82E10D6
:102D900084F82A0084F82B00A4F1820110228870A4
:102DA00001F8040F521EFAD100F09EFD094D0126D4
:102DB00084F82860FF202870074801F095F96870B2
:102DC00001F0F0F9A86000F019FD84F82F6070BDE3
:102DD000941000203C000020C516000070B5054688
:102DE000012000FA05F40E46002A08BF08480CD05E
:102DF000002000F0E9FCE90001F1804101F5F83123
:102E0000C1F81005C1F814650248046070BD0000E7
:102E100008F5014004F5014000B583B0684600F0B4
:102E200099F900980AF09DFA019A034B0021E2FB00
:102E3000030103B000BD00000080841E410B48F276
:102E4000376251430A0C094B510202FB0302084846
:102E5000504300F586306E30400D5B4210FB03F3AB
:102E6000B2EB532F88BF491C08447047F7C2FFFFDD
:102E70006F0C0100430B48F2376C03FB0CF330B4CA
:102E80001B0CDFF844C05C0203FB0C030F485843E3
:102E90004FEA505C04EB0C0043F609541CFB04F4AD
:102EA00004F5807C43F60855A3EB5C2C2C440CF015
:102EB000FF0CB3EB542F84BF4FF0000C401C086094
:102EC00082F800C030BC7047F7C2FFFF6F0C0100F2
:102ED0002DE9F0413B4DD5F80403DFF8EC8010F408
:102EE000803F4FF400664FF0E0274FF0000419D008
:102EF00036480068B0B1C5F84041C7F88062D5F8DF
:102F00004005D8F80010401A20F07F40022802D374
:102F1000B0F5000F06D94FF48030C5F8080304203F
:102F2000FEF7C2FED5F8040310F4003F1AD028487B
:102F30000068B8B1C5F84441C7F880622548D0F8A8
:102F40004005D8F80010401A20F07F40022802D334
:102F5000B0F5000F06D94FF40030C5F8080305207E
:102F6000FEF7A2FED5F8040310F4802F1AD01A48F9
:102F70000068B8B1C5F84841C7F880621748D0F872
:102F80004005D8F80010401A20F07F40022802D3F4
:102F9000B0F5000F06D94FF48020C5F808030620CD
:102FA000FEF782FED5F80401002808BFBDE8F081D5
:102FB000C5F80441C7F880620948C168491CC1606E
:102FC000BDE8F08100B0004004B5004040B10040D1
:102FD00044B1004004B0004048B1004008B0004097
:102FE000480000202DE9F041384D2878042868D0A9
:102FF000A81C0122017859B1012908BF6A7002D0CA
:103000006978002958D002210170407800F0FEFA5A
:103010002F4CD4F804034FF0000810F4002F4FF4A5
:1030200080774FF0E0260AD02A48006838B10320A4
:1030300000F0ECFAC6F880720320FEF735FED4F8F3
:10304000040310F4802F0AD02348006838B102200E
:1030500000F0DCFAC6F880720220FEF725FED4F8F4
:10306000040310F4003F0AD01C48006838B1012066
:1030700000F0CCFAC6F880720120FEF715FED4F8F5
:10308000040310F4803F08BFBDE8F08114480068D5
:10309000002808BFBDE8F081002000F0B7FAC6F8AC
:1030A000807204202870C5F80480C4F80082BDE84E
:1030B000F0410020FEF7F8BD40F29F416C2000F087
:1030C0005DFFBDE8F0410720FEF7EEBD480000209F
:1030D000008000404C810040488100404481004015
:1030E00040810040012211024FF0E0230020C3F88C
:1030F000801103F5C073BFF34F8FBFF36F8FC3F819
:1031000000110E4941F8042F431EC1F80433C1F8E1
:103110003C05C1F83C010A4BC3F84005C1F8400129
:103120001B1DC3F84005C1F844011B1DC3F8400531
:10313000C1F84801CA6003494870704700800040E8
:1031400004800040480000200148006870470000EB
:1031500004B5004030B4EFF3108C72B600250B4B71
:103160000B4A00BFD3F80415D3F804412CB1D16841
:10317000491CD160C3F80451F4E7D268BCF1000FD8
:1031800000D162B6C0E9001230BC704700B0004008
:10319000480000202DE9F047464E0546B71E33781B
:1031A000B968012B04BFA942BDE8F0874FF0404049
:1031B000414A1060424A4148C2F8080302F1040C37
:1031C0004FF00004002B62D03E48C2F84803CCF810
:1031D0004045C2F8444100BFD2F848014FF0E02911
:1031E0004FF00108002801BFD2F8040100284FF475
:1031F0000060C9F880024FF48030C2F80803C2F8BA
:103200004803C2F840413048D0F800C0A5EB0C0C90
:103210002CF07F4CBCF1020F44D3BCF5000F41D819
:10322000C2F840554FF4803CC2F844C32BB1026849
:103230008A1A22F07F42022AF9D3C7F804803C7030
:10324000FFF750FF2148D0F8041564F30101C0F8DE
:103250000415D0F80825022161F30102C0F8082501
:103260000421C0F81015C0F80C807968C0F800126D
:103270008015C9F88002C9F800011549C005086029
:103280000420BD60707086F80080BDE8F087C2F849
:103290004803C2F84045C2F84041CCF84045C2F866
:1032A000444199E70020C2F8400540F293216C2088
:1032B00000F064FE4A00002008F50140FDFFFBFF1E
:1032C00000B00040FDFFFAFF04B500400080004060
:1032D00004F5014070B52A4CA168814214BF012257
:1032E0000022DFF8A0C09CF80050022D02D0002A76
:1032F00034D002E0002A08BF70BD62789AB3224B36
:103300004FF080421A60214B9213C3F80823C3F890
:1033100048230022C3F840211D4A1668861B26F068
:103320007F46022E24D3B6F5000F21D8C3F84005FE
:103330004FF48036C3F844632DB11368CB1A23F0E1
:103340007F43022BF9D3134B02214A071A60A06076
:1033500004208CF801008CF8001070BD40F2A1210F
:103360006C2000F00BFE40F2A5216C2000F006FE60
:103370000020C3F8400540F2B1216C2000F0FEFDB2
:10338000480000204A00002008F5014000B000403D
:1033900004B5004004F50140014880687047000012
:1033A000480000202DE9F0413648354AC0F808238E
:1033B000DFF8D4C0031D00219CF8004084B1334ADB
:1033C000C0F84823C3F84015C0F84411D0F848218C
:1033D0000123002A04BFD0F80401002811D10AE01B
:1033E000C0F84823C0F84015C0F84011C3F8401594
:1033F000C0F84411EAE74FF0E0224FF40060C2F851
:103400008002022C04D040F2BD216C2000F0B6FDF9
:103410001F4E30681F4CC01C20F07F40A2681E4D1C
:1034200090420BD03768D71B27F07F47042F05D376
:10343000B7F5000F02D8FFF7ADFE1BE03068101A99
:1034400020F07F40022813D3B0F5000F10D8134AA4
:103450004FF080401060636021706B60EB60400053
:10346000111F086004208CF801008CF8003001E086
:10347000636021706068C5F80002BDE8F08100005B
:10348000FDFFFBFF00B000404A000020FDFFFAFFF7
:1034900004B50040480000200080004008F50140CD
:1034A0002DE9F041544A0025012492F800C05378D8
:1034B0004FF4A07607287DD2DFE800F0040404046E
:1034C000585858004D4A9768B7F1807F04BF52782A
:1034D000002A03D0BCF1020F05D026E040F24D31A6
:1034E0006C2000F04BFD1A1FD2B206EB820202F1F3
:1034F000804606F530460022BCF1010F03D0BCF136
:10350000020F08D00EE0042B24BF3768002F08BF3D
:103510004FF0004206E0042B24BF3768002F08BF9D
:1035200042F0804212F0804FE5D1DFF8D4C000F1C4
:10353000100204FA02F2CCF808234FF0400303EB28
:103540008003DBB263441C600CEB8000D0F8403594
:10355000A1EB030323F07F43032B26BFC0F84015E4
:10356000CCF80423C0F8405537D23CE0BCF1000F42
:1035700006D0834204D140F26D316C2000F0FEFC95
:10358000021FD3B2032B04D34FF4E4716C2000F07C
:10359000F5FCDFF870C003F1100204FA02F2CCF877
:1035A0000823CCF8482306EB83034CF80350164B52
:1035B0001B6800E01AE0001FCB1A23F07F43C0B263
:1035C0000CEB8000022B0BD3B3F5000F08D8C0F82A
:1035D0004015CCF80423CCF844230120BDE8F08149
:1035E0000021C0F840150020BDE8F08140F27131A3
:1035F0006C2000F0C3FC00004A00002048000020BE
:103600000080004000B0004004B500402DE9F843C0
:10361000012600274FF4A078072851D2DFE800F0F8
:10362000040404041919190000F1100106FA01F24A
:103630002649C1F8082301EB80030022C3F8402586
:1036400008EB80028F50224951F820000090BDE81D
:10365000F883204D011FCCB2297879B16A78824273
:103660000CD11D4A4FF040401060012908BFFFF700
:1036700039FD2F7019494FF080708860184904F1A6
:10368000100006FA00F0C1F80803C1F84803A000D2
:103690000844D0F84005134A1268801A20F07F4091
:1036A000022807D301EB84020020C2F8400508EB92
:1036B00084000F500C4850F824000090BDE8F883B7
:1036C00040F2F5316C2000F059FC00000080004011
:1036D000408100404A00002008F5014048000020D9
:1036E00000B0004004B5004040B100402548244AE5
:1036F000C0F808232449031D91F800C00021BCF143
:10370000000F10D0214AC0F84823C3F84015C0F874
:10371000441100BFD0F84821002A04BFD0F80401AA
:10372000002811D10AE0C0F84823C0F84015C0F8BD
:103730004011C3F84015C0F84411EBE74FF0E02208
:103740004FF40060C2F8800211484FF0FF32C0F819
:103750000823C0F84015C0F8401100F10402C2F877
:103760004015C0F8441102F10402C2F84015C0F837
:10377000481102F10402C2F84015C0F84C1170471C
:10378000FDFFFBFF00B000404A000020FDFFFAFFF4
:103790000080004010B507280DD2DFE800F00404D7
:1037A000040406060600064902E0001F0549C0B2EF
:1037B00001EB800010BD40F295316C2000F0DEFB83
:1037C0004081004040B1004010B507280DD2DFE82D
:1037D00000F00404040406060600064902E0001F87
:1037E0000549C0B201EB800010BD40F295316C205C
:1037F00000F0C4FB4081004040B1004070B51F485C
:10380000002404210470801E01708905C460816059
:10381000FFF768FC01254FF0E02CEB02CCF880317B
:10382000BFF34F8FBFF36F8FCCF8803214484560E1
:10383000856014490A68002AFCD1511EC0F808139B
:10384000C0F84813C0F84045C0F840410E49C1F8DF
:103850004045C0F84441091DC1F84045C0F8484101
:10386000C0F80441CCF8003105604FF48271C0F813
:1038700044130221C0F8041370BD00004A00002068
:1038800000B0004004B5004004B00040084890F982
:1038900000000028B8BF704700F01F01012202FAA3
:1038A00001F14009800000F1E020C0F800127047EB
:1038B000140300200348007803280CBF01200020D7
:1038C0007047000000030020014840887047000056
:1038D0000003002003480078022816BF03280120B7
:1038E0000020704700030020024800210170418041
:1038F00070470000000300202DE9F041164C607A6B
:10390000002827D04FF480718D05284609F078FDF6
:1039100080464FF48271284609F072FD0026074662
:10392000B8F1000F09D00120C5F80803207920B1B3
:103930002671E06908B18047E66137B1C5F80461D6
:103940000220C5F8080300F04DFA4046BDE8F041FA
:1039500000F058B8BDE8F0815800002010B509F01B
:10396000F9FD30B909F017FE18B909F04AFE002830
:1039700002D002490220086010BD0000340C004053
:1039800070B500F091F900F081FA094C4FF08045D4
:1039900030B1FFF7E3FF012028610420A07204E0AA
:1039A0000320A0720120C5F804030020E07170BD5F
:1039B0005800002070B5124CA079E0B1E179401EAA
:1039C000814218DA00F062FA054600F04BFBA1795B
:1039D000012902D9E179491CE1710DB1616900E069
:1039E0002169411A022902DA11F1020F07DC0DB137
:1039F000606100E02061BDE87040FFF7C1BF70BDAD
:103A0000580000202DE9F04706464FF080454FF45E
:103A10008671284609F0F4FC80464FF488712846E8
:103A200009F0EEFC274C8246277804F1080009F0E3
:103A30005BFD10B140F2B91116E04FF0010946B13B
:103A4000A07A032805D10420A072FFF787FFC5F8EC
:103A500010900026B8F1000F18D0C5F80C61A07ABC
:103A6000042804D040F2CB116D2000F087FA09F051
:103A700071FD28B909F08FFD10B909F0C2FD08B138
:103A8000114806600220A07200F0F2F8BAF1000FAF
:103A900008D0C5F81061A07A022801D1FFF78AFF8B
:103AA000C5F814903FB12670A07A022801D1FFF723
:103AB00067FF00F0DDF8BDE8F0470248083009F084
:103AC0002ABD000058000020340C00402DE9F047CA
:103AD0005F4C00270646A761427881780078E07243
:103AE0006271A171E7714FF001084FF08045052820
:103AF00025D2DFE800F0100306202200C4F8188069
:103B000009E000F0D1F80121284609F07EFC0028E8
:103B1000F9D00220A06109F0A4FCB0B100F0D0F906
:103B2000217E01F0030188420FD1B07950B102200B
:103B3000C5F8040370E04748ECE74748EAE740F27D
:103B40003A314DE000F090F966E0C5F80C804FF492
:103B5000827AC5F80471A069C5F8180509F0E6FC79
:103B600040B909F0EDFC28B909F001FD10B909F0E0
:103B700012FD38B14FF08050D0F844023749C0F3FD
:103B80004230086009F0D2FC40B909F0D9FC28B9EC
:103B900009F0EDFC10B909F0FEFC18B12F49103105
:103BA000C1F80080C5F808800220C5F80403B07988
:103BB00090BBD5F8040310F0020F0FD0DFF8A090EF
:103BC000D9F80010C94341F3001101F10108D9F8F7
:103BD000001041F01001C9F8001007E040F2FB218D
:103BE0006D2000F0CBF900BF00F0F2FA51462846F4
:103BF00009F006FC0028F7D000F036F9B8F1000F04
:103C000005D1D9F8001021F01001C9F800100220E8
:103C1000C5F80803C5F80471A07970B1307860B9AF
:103C200000F034F9064600F01DFA6FF0004116B1BD
:103C3000C4E9041001E0C4E904010121284609F0A7
:103C4000E4FB08B100F01CF9A772BDE8F0870000A2
:103C50005800002001000200010003003C05004064
:103C600010ED00E00148C0897047000058000020B6
:103C700010B5EFF3108472B60A48417829B1417843
:103C8000491E4170417829B108E04FF48E716D20D2
:103C900000F074F9807808B900F006F9002C00D122
:103CA00062B610BD5800002010B5EFF3108472B654
:103CB00006484178491C41704078012801D109F03B
:103CC000BBFB002C00D162B610BD000058000020E4
:103CD000054810B5C17821B100210171C170FFF70D
:103CE000C7FF002010BD00005800002070B50C4C2C
:103CF000E17861B90125E570E061FFF7D5FF00F0DB
:103D0000C5F830B1E06910B180470020E0610020C3
:103D100070BD4FF080402571C0F80453F7E70000F4
:103D2000580000202DE9F04105006FF015003FD04C
:103D3000297804293CD8002969783BD0002937D15B
:103D4000A978002934D1002009F025FB002009F0D2
:103D500015FB4FF080484FF0FF31C8F808130026DC
:103D6000C8F80061C8F80461C8F80C61C8F81061AF
:103D7000144C6670A888A08109F055FB012708B192
:103D8000E77067700121404609F03FFB08B100F081
:103D900077F840F2F550E0812846FFF797FE67720A
:103DA000002009F0EBFA4FF0E0213046C1F8007135
:103DB000BDE8F0810029FBD02029F9D8A978212974
:103DC000C1D9F5E7580000200148808970470000FC
:103DD000580000200248807A002800D00120704757
:103DE00058000020F8B51F4DE87A00280FD1287E32
:103DF00000F0030009F025FB002808D0EFF3108144
:103E000072B6FFF7E7FF18B1002900D162B6F8BD1E
:103E10000126AE7201B962B618204FF08044C4F892
:103E20000803A6614FF42070ADF80000BDF8000053
:103E3000411EADF80010F9D20027C4F80C71C4F887
:103E400010710848083009F062FB2F70FFF798FDE9
:103E50006661687900F07F00C4F838051820C4F85E
:103E60000403F8BD5800002010B5044C207E00F07B
:103E7000030009F0E6FA0028F8D010BD5800002031
:103E80000149012008707047150300204FF0804061
:103E9000D0F8000118B903480078002800D00120AC
:103EA00070470000150300204FF080400121416061
:103EB0000021C0F80011014801707047150300206F
:103EC0000248006800F00300704700001C04004036
:103ED00010B531B1012907D040F2023105A000F040
:103EE00021F8D0F8140401E0D0F8080400F0010033
:103EF00010BD00006E72665F636C6F636B2E6800AE
:103F0000BFF34F8F05480168054A01F4E061114392
:103F10000160BFF34F8F00BFFDE700000CED00E034
:103F20000400FA0572B6034A526802B19047FFF7DF
:103F3000E7FF000078000020064810B5002101606E
:103F400001210160084609F0A3FABDE810400120F4
:103F500009F091BAFC1F0040074810B501214160EB
:103F6000891EC0F808130C2009F092FABDE8104031
:103F70000C2009F080BA000000C000400EB572B6F7
:103F80000F4A5568D5B1002203466E460A2403E065
:103F9000B0FBF4F0521CD2B20028F9D1B05409E0C1
:103FA000B3FBF4F004FB1030B3FBF4F3521ED2B2B7
:103FB0003030B054002AF3D13046A847FFF7A0FFB5
:103FC000780000202DE9F041184C0646174660782D
:103FD0000D4618B14FF0FF30BDE8F081FCF7E2FB71
:103FE00006B9134E67602570FFF7A6FFFFF7B4FF11
:103FF0003046FFF797FE0600EED1FEF7AFFEFFF763
:10400000F1FE09F011F9284609F035FA0120002DDA
:1040100009DB05F01F0100FA01F16A09920002F1C3
:10402000E022C2F8001160703046D5E77800002029
:10403000B2D40000014840787047000078000020AA
:10404000074890F90000002809DB00F01F02012159
:1040500091404009800000F1E020C0F80012704754
:10406000780000202DE9F04101264FF0E0223103D5
:104070004FF000084046C2F88011BFF34F8FBFF3E6
:104080006F8F164CC4F800010C2009F020FA144D73
:104090002868C04340F30017286840F010002860EB
:1040A000C4F8046326607F1C02E000BF00F090F8B3
:1040B000D4F800010028F9D01FB9286820F01000BA
:1040C0002860084805686660C4F80863C4F8008181
:1040D0000C2009F0FCF92846BDE8F08100C0004042
:1040E00010ED00E008C5004010B5024605200C495F
:1040F00004E000BF01EBC0031B7933B1401EC0B226
:10410000F8D248216920FFF739FF41F8302001EB50
:10411000C00100224A718A7101220A7110BD00009B
:10412000C410002010B5052801D3582106E00A4923
:1041300001EBC0000179012903D059216920FFF763
:104140001DFF41798279491CC9B28A4200D0417170
:10415000BDE81040FFF774BFC410002070B50525FE
:104160000E4E0F4C16E0217806EBC1000279012AB1
:1041700008D1427983799A4204D04279827156F803
:10418000310080472078401CC0B22070052801D340
:10419000002020706D1EEDB2E5D270BDC41000206D
:1041A0001603002000B509F0C1F940B909F0C8F9BB
:1041B00028B909F0DCF910B909F0EDF908B10248A5
:1041C00000BD024800BD00000C05004000E70140B2
:1041D00010B509F0E0F930B3EFF31080C8B1002159
:1041E00072B6124802680368C2F3001243F010036B
:1041F00003604FF0E023D3F80042D3F804321C43AD
:1042000000D040BF20BF00BF00BF00BF00BF12B141
:1042100005E00121E4E7026822F0100202600029B3
:1042200000D062B610BD20BF10BD000010ED00E050
:1042300001490120887070478000002007D80000E5
:104240003FD8000029D8000017D8000023D800006C
:1042500011D8000005D8000003D800003BD80000AA
:104260002FD800001DD800000BD80000FDD700009B
:10427000F5D70000F9D70000EFD70000014800682B
:10428000006800479400002001480068406900472A
:1042900094000020014A1268D26810479400002060
:1042A00001490968C96A084794000020014800686C
:1042B0000069004794000020014A12689268104784
:1042C0009400002001490968496A084794000020C9
:1042D00001490968896A084794000020014B1B685E
:1042E0005B68184794000020014800787047000080
:1042F000170300201FB5144C207A8DF80100E079D7
:104300008DF80000A079ADF804006079ADF80200E6
:10431000684607F059F808B1832110E0E068029080
:1043200002A807F067F808B1872108E0074800688D
:10433000039003A80CF016F8002803D08B2103206B
:1043400000F03AF91FBD0000EC100020A846000064
:104350002DE9F84F0D4681464FF0000100F10300B2
:10436000009120F003002978160004468DF8011012
:1043700000D00020694600F00BFB1A492044044697
:10438000C97839B1297C29B1252206B1002000F075
:1043900049FD044428786978B2460027084400F0B3
:1043A000FF083E4608E02B7AEA79A97968790AF095
:1043B0001FFA761C0744F6B24645F4D3E41C24F0F9
:1043C00003000446BAF1000F00D000203A464146EF
:1043D00000F0A6FC2044C01D20F00700A0EB09005F
:1043E000BDE8F88F9800002010B528B114220449C8
:1043F00009F023F9002010BD6FF0150010BD00007A
:10440000C446000070B503006FF02C0003D12F4CA0
:1044100063780BB1801170BD01B36FF015059AB3CD
:104420002B4B0C294DD2DFE801F04C06090C1A1D6C
:1044300027302233383D1078187037E010785870E4
:1044400034E0907800B3D078F0B110781B2838D3DE
:1044500050781B2835D31068C3F8050026E0106893
:10446000D86023E011780029D5D199701EE0117829
:104470000029D0D1D97019E0E07810B11078022865
:104480001FD31078187411E01BE0108858820DE0DB
:1044900011780029BFD1197108E01078022810D3D3
:1044A000187503E011780029B5D159750122084922
:1044B0000020FFF74DFFB0F5803F04DB6FF00B00ED
:1044C00070BD284670BD0121A17070BD980000200C
:1044D000EC10002070B50C46050019D0C4B100F0F6
:1044E00025F9C0B12846FFF7FFFD0C4D00220C490D
:1044F00028702046FFF72CFF0CF00AFB00212878DB
:1045000007F066F9FFF7F6FE01206870002070BD25
:104510006FF0150070BD4FF0FF3070BD98000020A7
:10452000EC10002030B587B005000CD0FFF782FDFD
:104530004FF0FF3420B1FFF747FCB0F5FA7F05D903
:10454000204607B030BD6FF01500FAE7154C16484D
:10455000656000F0DFF900206070A070E070014637
:104560001822684609F0E3F818221049684609F055
:1045700064F8182269460E4809F05FF8EFF31084DA
:1045800072B66FF00C0000F099FC0A4800F064FD70
:1045900018B19E21032000F00FF804B962B6002084
:1045A000CFE7000098000020F5420000AC46000074
:1045B000EC100020594700000EB572B6154A556838
:1045C000DDB1002203466E460A2403E0B0FBF4F09E
:1045D000521CD2B20028F9D1B0540AE0D8B2B0FBD4
:1045E000F4F7B3FBF4F304FB1700521ED2B23030E1
:1045F000B054002AF2D13046A847BFF34F8F064887
:104600000168064A01F4E06111430160BFF34F8F76
:1046100000BFFDE7980000200CED00E00400FA0563
:1046200010B5074CA0786178084302D04FF0FF30F6
:1046300010BD07F0EDF80120E070002010BD000073
:1046400098000020064810B581784078014302D0D8
:104650004FF0FF3010BD06F029FF002010BD000014
:1046600098000020074810B581784078014302D0B7
:104670004FF0FF3010BD0BF084FF0BF0A6FF0020C1
:1046800010BD000098000020064810B581784078E1
:10469000014302D04FF0FF3010BD0BF096FF002019
:1046A00010BD000098000020010000000101010081
:1046B000001B1B03020000004C1D000003001F0034
:1046C00000000000295C92F1368192D1B7A9F0F187
:1046D00099E94C191F23834A054A10B5526812B153
:1046E000BDE81040104792210420FFF765FF00004D
:1046F00004110020054A10B5126812B1BDE810403F
:1047000010478C210420FFF757FF00000411002000
:10471000054A10B5926812B1BDE8104010479821C3
:104720000420FFF749FF000004110020054801683C
:1047300029B1416819B1806808B101207047002093
:10474000704700000411002002490DC881E80D00E7
:104750000020704704110020F8B5124C002625688F
:1047600011E00098022802D003280CD106E020684E
:1047700010B10020266005E028210CE0206868B117
:1047800001202660A847684600F038FC0028E8D0E1
:10479000052805D035210420FFF70EFF2D21FAE76B
:1047A000F8BD0000A000002070B5144C054620782C
:1047B00040B1A278611C2846921C08F03EFF002000
:1047C000207013E00E4801F0D5FF00280FD00C48F0
:1047D0000078142804D10A213E2009F08DF838B160
:1047E0000749284609F0E4F8002800D0012070BDF0
:1047F0000349284609F019FBF8E7000018120020C9
:104800001011002070B50A7882703AB3012A25D8B9
:104810001323037000230AE001EB430400EB43057C
:10482000A678EE706488240A5B1C2C71DBB293427C
:10483000F2D300230BE000BF01EB430500EB430480
:104840002E796671AD882D0A5B1CA571DBB293428F
:10485000F2D3012101EB8200C0B270BD002070BD17
:10486000402803D2401EC1B2054805E0FF2805D00C
:104870004038C1B20248083009F001BB012070473E
:10488000A4000020401EC1B2014809F0F8BA00009F
:10489000B4000020024902680A614068486170471C
:1048A000A4000020054902680A60406842F48C2296
:1048B0000A60034A1043486070470000A4000020CB
:1048C000F8074002024902688A604068C860704781
:1048D000A400002007484FF0FF3100220160C90CFE
:1048E000416000F108011F200A604A600831C1E9F7
:1048F00000027047A400002010B5FFF7EBFF0BF09B
:10490000B9FD04460248006800B18047204610BD4A
:10491000BC0000200149086070470000BC00002076
:10492000022101804180002101712921417149F258
:104930005C21C1800149816000207047F13681927D
:104940003EB50446694609F038FF70B140F25A217D
:1049500008E000BFBDF80400214600F0A7F820B130
:1049600040F25F211720FFF727FE684600F050F85D
:104970000028EFD03EBD000010B520B14FF4D67135
:104980001720FFF719FE0148007810BD1C13002006
:10499000F8B5054608784A78904202D940F263118A
:1049A0000AE000955DB10026E81C4C7820F0030079
:1049B000A84206D040F279111720FFF7FDFD01262D
:1049C000F2E7124F314668463C7000F0E1F80020F3
:1049D00003460099C91C21F00301009166B907EB59
:1049E00080029160002105E0D2F808C04CF8213027
:1049F000491CC9B2A142F7D30099401C01EB8401C4
:104A0000009110F0FF00E4D0481BF8BD1C130020FB
:104A100070B5044609F060FF08B1102070BD25781C
:104A200000F0F2F802460C48618800EB85000EE0C9
:104A3000836853F8213043B14A1C6280A1808068AA
:104A400050F82100A060002070BD491C89B291423D
:104A5000EED36180052070BD1C1300202DE9F041CC
:104A600049B9114C00273B464FF6FF7604EB810510
:104A700014F801C00DE00020BDE8F081DC19D5F884
:104A800008E0A4B25EF824E0BEF1000F04D05B1C85
:104A90009BB29C45F2D8344604802046B442EAD00A
:104AA000BDE8F04100F02CB81C13002070B506469C
:104AB000A0F57F4043F20205FF381AD009B1072064
:104AC00070BD304600F054F8040012D00A48214668
:104AD000026830469047094D0020A96841F8260039
:104AE00000F088F802462146686809F050FE002070
:104AF00070BD284670BD00001C4C00001C13002037
:104B00002DE9F04190460E46074609F066FE48B191
:104B1000154800EB8605A86850F8270028B14FF427
:104B20009D7114E040F2391111E06868002818D036
:104B3000304600F05FF80146686809F0D0FD0400D7
:104B40000ED0A86840F8274026B140F24511172042
:104B5000FFF732FD0548424621460368384698472C
:104B60002046BDE8F08100001C130020184C000016
:104B700070B50C46054609F030FE002805D0034804
:104B800000EB8400806850F8250070BD1C130020E5
:104B90002DE9F843164E8846054600242868C01CB7
:104BA00020F003002860204600F024F8315D4843DF
:104BB000B8F1000F01D0002200E02A6801460092FF
:104BC00032B100274FEA0D0009F0BAFD1FB106E02F
:104BD00001270020F8E706EB8401009A4A60296863
:104BE000641C0844286014F0FF04D7D0BDE8F883A3
:104BF0001C130020034931F810004FF6FC71C01C53
:104C000008407047144C00000148007870470000CD
:104C10001C13002048020000EFE7000025FC000004
:104C20002DE9FF4F274C064681B020689A469346EF
:104C300058B1017AB14203D9406850F8260040B11A
:104C400043F2020005B0BDE8F08FA5211820FFF760
:104C5000B3FC1946029809F0E4FD804658460E99C7
:104C600009F0D5FD054608EB0500001D87B2206858
:104C7000A1463946006809F032FD04001FD0678064
:104C800025802946201D0E9D07465A460123009582
:104C900009F084FC2088414638440A23029ACDF862
:104CA00000A009F07BFC2088C119384609F0A7FC58
:104CB000D9F80000406840F826400020C2E70420F0
:104CC000C0E70000C000002070B5144C23688BB111
:104CD000197A814212D95A6852F8201071B1002510
:104CE00042F820504A88186809F051FD21680020D8
:104CF0000A7A0CE0C8211820FFF75EFC43F202009C
:104D000070BD4B6853F8203033B9401CC0B28242AA
:104D1000F7D8086809F030FD002070BDC000002001
:104D20002DE9F0410D46040090464FF0000609D0F1
:104D30000027E01C20F00300A04205D086211820A7
:104D4000FFF73AFC0127F4E7CDB11146002009F046
:104D5000F7FC0C3000EB85068FB90A4F04F10C000C
:104D6000AA003C602572606000EB85002060002195
:104D7000606808F0DCFC4146386809F0E1FC304628
:104D8000BDE8F081C000002070B5084D28680028FB
:104D90000AD0002404E02046FFF796FF641CE4B22A
:104DA0002868007AA042F6D870BD0000C00000203C
:104DB000094910B502460968002049B10B7A9342AF
:104DC00005D9496851F82210002900D0081D10BDEE
:104DD000EE211820FFF7F0FBC00000200A4910B5B3
:104DE00002460968002059B10B7A934207D94968F5
:104DF00051F82210002902D031F8040B084410BDEC
:104E0000FC211820FFF7D8FBC000002001484078A3
:104E100070470000C400002001484068704700004F
:104E2000C40000202DE9F8430C460746164625210C
:104E300010460D46224609F00CFC804657B1384614
:104E4000414632462B46009409F0A8FB03484760D0
:104E5000047046704046BDE8F8830000C40000209E
:104E60000248427801784068FFF7DCBFC4000020A8
:104E700030B50D4901204860821EC1F808230B4956
:104E800088600023C1F80032C1F80823084C236071
:104E9000251D28608860C1F8082323602860064922
:104EA0000448086030BD000000E0004000F0004011
:104EB00000F500400000F63F08F5014010B504463B
:104EC000FFF7D6FF09F0D5FC00F088F80549044843
:104ED0000860204600F0B8F8BDE8104000F0D0B8F7
:104EE0000000F63F08F501402DE9F84F82463848AA
:104EF00008F0FAFADFF8D8B028B101260BF101006A
:104F0000FF21017000E000264FF48075314C4FF016
:104F100000082F1D01216160C4F80081C4F80481DC
:104F2000C4F804A52160DFF8B0901CE0D9F80000B7
:104F3000C00618D50E2009F0ABFCEFF310800090EE
:104F400072B603212046C4F80413294609F0ADFCCB
:104F500030B93946204609F0A8FC08B9FFF738F9FE
:104F6000009800B962B62946204609F09EFC28B98F
:104F70003946204609F099FC0028D7D0394620460A
:104F800009F093FC0028C5D106BB9BF801108DF8F1
:104F90000010009900919DF8001009B1012500E072
:104FA00000250BF1010080F800800320C4F80803FD
:104FB000C4F80481C4F800810E2009F069FC04489B
:104FC00008F0A9FA15B11120BDE8F88F0020FBE721
:104FD0001803002000E0004010ED00E010B5064886
:104FE00008F095FA18B127211D20FFF7E5FA0248CD
:104FF0000021417010BD00001803002070B5114958
:105000000A68EAB100231D4601244A68521C4A601E
:105010000C2A00D34D600E7904FA06F20E6816428F
:105020000BD0EFF3108372B60C6894430C6003B995
:1050300062B649680160002070BD5B1C0C2BE4D394
:10504000052070BDCC0000200248002101604160B5
:1050500070470000CC00002010B5084C617809B101
:105060000F2010BDFFF740F82070FF2801D000206E
:1050700010BD78211F20FFF79FFA000000000020DC
:105080000149002048707047000000200648074A88
:10509000818C5288914204D190F8220008B10020FE
:1050A00070470120704700008C130020040300208B
:1050B0000149488070470000040300200848094A5D
:1050C000818C5288914209D14FF6FF71818410F88A
:1050D000221F19B100210170012070470020704784
:1050E0008C13002004030020074810F8221F012918
:1050F00007D00121017005480349008888840120F8
:1051000070470020704700008C130020040300202B
:105110000649074B8A8C5B889A4205D191F8222078
:1051200012B1016001207047002070478C130020ED
:105130000403002009498A8CA2F57F43FF3B02D07B
:105140000021016007E091F822200449012A02D0E1
:105150000160012070470020704700008C13002080
:105160000149088070470000040300200549002021
:1051700081F822004FF6FF70888403490880488038
:10518000704700008C1300200403002005498A8C1E
:10519000824205D1002081F822004FF6FF708884FA
:1051A000704700008C1300200A4A10B1012807D074
:1051B0000EE0507860B1D2F802000860D08804E0B8
:1051C000107828B190680860908988800120704725
:1051D000002070471A030020084A012338B1012833
:1051E00004D113700868906088889081704753706C
:1051F0000868C2F802008888D08070471A0300202F
:10520000064910B1012802D005E0487800E008788E
:1052100008B1012070470020704700001A030020E9
:1052200001490877704700004A0B0020084600211A
:1052300041701F2100F8041B0E22014908F0FDB93E
:10524000580B002010B5044600F05EF918B1C221D9
:105250002720FFF7B1F90348012109F02AFF02488E
:10526000C46210BD280B0020D40000200149012099
:1052700088717047D40000202DE9F84F684D0A9CD2
:105280002E78EEBBE2B3DBB3D4B305F11406C5E967
:105290000E0186E81C000027AF716F71EF70AF70D0
:1052A0002F71AF81EF8100F073F9064600F06AF9C3
:1052B000044606F0C9FE06F069FC94F9720006F097
:1052C00047FF04F11C0007F019F8606907F00CF8BB
:1052D00096F8240007F046F84FF0010A94F86E1093
:1052E000002006F0B7FD00287ED04E4806F016FEDE
:1052F0002088FFF773FD28632088FFF759FD00E041
:105300000AE0686394F87B008DF800000098009034
:105310009DF8000098B902E04FF48D717CE0606F59
:1053200068B1708FB188884209D1B4F87810012231
:105330000844708794F87A00616FFDF74FFD783666
:105340003948B6E80E1000F1080888E80E1056F843
:10535000041BC0F8211056F88C19C0F8251000F075
:1053600093F9A28F0146B946104609F075FC218FCA
:10537000814200D208462872A84694F86F10B4F80B
:105380004200377DB4F84050082900D1042109F0CB
:1053900063FC0FB9001D80B2854200D22846C0B21E
:1053A00088F80900327D02B10422104488F8070011
:1053B000F07C98B11C484D46083080F818A0D6E91A
:1053C0001A12C0E9041294F86E0009F023FB164982
:1053D0000346FB220831284606F044FB012000F07A
:1053E000B9FB1248006800E012E0032812D00B2835
:1053F00010D00D480E220021523008F098F90A48CA
:10540000B188523041802188018096F824100171C2
:10541000BDE8F88F40F2D5112720FFF7CDF8000046
:10542000D4000020D85C0000F80A0020501500408D
:105430002DE9F047054600F0ABF8324E04464FF038
:105440000008706A47780DB1012D01D186F80180FE
:1054500070784FF0010950B101281AD0022834D0D9
:10546000032848D040F21D412720FFF7A5F8012D61
:1054700032D000F0F5F839460122706B08F004FFD5
:1054800028E000BF84F8088031E000BF84F808906D
:105490002DE0012D08D000F0E3F839460022706BB2
:1054A00008F0F2FE022D0BD0D4E91C01401C41F1A2
:1054B0000001C4E91C01207A012803D084F8089077
:1054C000BDE8F08784F80880FAE7012D04D0706BFE
:1054D00009F000F9022DF3D0D4E91C01401C41F180
:1054E0000001C4E91C01207A0128CFD1CAE7BDE838
:1054F000F04701F00DBA012DE2D0706B09F0EAF827
:10550000F5E70000D40000200448007808B10C2022
:10551000704703490020087770470000D40000203E
:105520004A0B0020124808B5017839B100780128EB
:1055300006D040F2ED112720FFF73EF800F0F2F917
:1055400000F020F890F87B108DF800100099009181
:105550009DF8001000290AD1416F002907D090F86A
:105560007A000022BDE808401146FDF737BC08BDAF
:10557000D4000020024A9389034393815269104763
:10558000D400002001484068704700000C01002052
:1055900001484068803070470C010020014A00211A
:1055A00052691047D400002070B5FFF7F1FF0446A0
:1055B000FFF7E8FF0546214609F024FC95F82A107C
:1055C000012912D1002810D008482A88416801F525
:1055D0009A704281627A0273A27A4273182201F0B1
:1055E000A5F8BDE8704001F093B970BD0C01002032
:1055F00070B5054601291CD8104CA1698847C0B177
:105600006079B0B9012D16D104F110000078C106FF
:1056100005D4E16A0978C90601D4012100E000211E
:10562000A26A1AB962890AB1C00602D5A0890143EB
:1056300001D0012070BD002070BD0000D40000200A
:10564000064B12B15889401C588119B1D888401CAA
:10565000D88070471889401C188170474A0B002079
:1056600010B5084CA06A38B16289616AD21C07F093
:10567000E4FFA06A606210BD40F263412720FEF79C
:105680009BFF0000D400002010B5FFF77BFF04460D
:10569000FFF77EFF417B0A4A242908D0807B24281B
:1056A00005D094F86E00042800D1082010BD506881
:1056B00090F8021294F86E00BDE8104009F0B8B9F5
:1056C0000C0100202DE9FC5F8B460746FFF760FFC9
:1056D0004FF00009634C05468DF80090CDF804901A
:1056E00020784E46022804D040F2EA412720FEF7F7
:1056F00063FFA07B400606D44020FFF74FFFE08900
:1057000040F04000E081287D4FF00108DFB380B118
:1057100006F076FA06F050FA58B9606A417841B15D
:105720000078297AC0F3C000884202D184F8028050
:1057300093E0606A4178618121B1606B08F097FF66
:10574000A06200E0A662E08940F48070E081606AB7
:10575000E9790078C0F38000884207D001A800F002
:1057600077F9E08940F48060E08101E04FF00109C1
:10577000606A297A0078C0F3C00088420ED168467A
:1057800000F028F90AE0FFE708B106F033FAE07804
:10579000401CE070E08940F40070E081DFF8C4A0B4
:1057A000E87C0AF1380A90B1FFF7ECFE2E4981F847
:1057B0001880D5E91A23C1E9042390F86E0009F096
:1057C00029F90346FB222849304606F04BF94FF0F1
:1057D0000008BBF1000F04D1E1780120FFF708FFBA
:1057E00098B106F06DFD9DF8000010B10020FFF7A4
:1057F0001FFEA8884A463946FFF722FF17B1E67018
:10580000FFF7D2FE4FF0010817E09DF8000010B13D
:105810000120FFF70DFE002000F09CF99DF800002C
:1058200010B10220FFF704FEA8884A463946FFF768
:1058300007FF17B1E670FFF7B7FE019850B108F007
:105840007BFDDAF80410401C06720B2200F06EFF9C
:1058500001F05EF8B8F1000F01D000F063F8BDE888
:10586000FC9F0000D4000020000B00202DE9F04731
:1058700088468146FFF78CFE284D0446287801288B
:1058800004D040F272412720FEF796FE20780026D1
:10589000012720B1267000210420FFF76BFE296A42
:1058A0000878C043800709D1A07978BB0220FFF7B0
:1058B00061FE286A0078C043800727D0286A4078B4
:1058C00010B10220A07100E0A771207D90B1FFF718
:1058D00059FE13496D7A0E76D4E91C23C1E90423DD
:1058E00090F86F0009F096F803462A460C493846AE
:1058F00006F0B8F838EA090004D000210846FFF79E
:1059000077FE28B1BDE8F04700F00CB80320D9E7D6
:10591000BDE8F047002000F0E1B80000D40000200E
:10592000000B002010B506F00BFA06F02FF90E4C14
:10593000E089FFF733FEE2696179A07890470B4870
:10594000007F68B109490E2201F10E0007F075FED3
:1059500006481D2200211D3000F0E8FE00F0D8FFAF
:105960000020207010BD0000D40000204A0B002051
:10597000084810B50078022804D040F22A212720D8
:10598000FEF71AFE044901200873BDE81040FFF736
:10599000C9BF0000D40000204A0B00200C4B30B4DB
:1059A000DB793AB9FF2B05D190F86F2090F86E4063
:1059B000A2420AD029B190F86F1030BC184606F008
:1059C000A7BCFF2390F86E10F7E730BC70470000CB
:1059D000D400002070B50646FFF7DAFD1B4A0446E6
:1059E0000125516A087800F0030001280CD0022834
:1059F0000AD0032821D12570D08940F40060D081DD
:105A00000120FFF7B7FD18E04878B0B1D18941F423
:105A10000061D181916A002909D0FB2808D89079CA
:105A200020B1BDE870402020FFF7B8BD357070BDD3
:105A3000507940F01000507170BD207A012801D0DB
:105A4000257270BD0020207270BD0000D4000020BF
:105A500070B50546FFF79CFD04468079002826D0E6
:105A600002280CD117482946006B08F0E1FBF8B179
:105A7000D4E91A01401C41F10001C4E91A010025D2
:105A8000A5716078012670B16570FFF717FB90B1C2
:105A900000210820FFF76EFDD4E91A01401C41F1F6
:105AA0000001C4E91A01E079012809D0E67170BD4E
:105AB00040F2B93101E04FF474712720FEF77CFD0C
:105AC000E57170BDD400002003480078002801D0A3
:105AD000FFF728BF70470000D40000202DE9F041F7
