:10100000C0610020E547010067700200B947010098
:10101000B9470100B9470100B947010000000000CD
:101020000000000000000000000000006542010018
:10103000B94701000000000011420100B94701005A
:101040001543010089960200154301001543010074
:10105000154301001543010015430100154301002C
:101060005196020015430100154301006F960200DE
:10107000154301001543010015430100154301000C
:1010800015430100154301001543010015430100FC
:1010900015430100154301001543010015430100EC
:1010A00015430100154301001543010015430100DC
:1010B00015430100154301001543010015430100CC
:1010C00015430100154301001543010015430100BC
:1010D00015430100154301001543010015430100AC
:1010E000154301001543010015430100154301009C
:1010F000154301001543010015430100154301008C
:1011000053B94AB9002908BF00281CBF4FF0FF316E
:101110004FF0FF3000F00CB8ADF1080C6DE904CED3
:101120000BF054FEDDF804E0DDE9022304B0704763
:10113000704700BF2DE9F00791E8F807B2E8021008
:101140005B1854EB0C04B2E802104D4156EB0C0650
:10115000B2E802104F4158EB0C08B2E8021059EB0C
:1011600001095AEB0C0A80E8F80780410130BDE81C
:10117000F00770472DE9F00791E8F807B2E8021090
:101180005B1A74EB0C04B2E802108D4176EB0C068E
:10119000B2E802108F4178EB0C08B2E8021079EB4C
:1011A00001097AEB0C0A80E8F80780414042BDE86B
:1011B000F00770472DE9F007524290E87800B1E857
:1011C00080071740DB1918EA020854EB080419EAF3
:1011D000020955EB09051AEA020A56EB0A0678C01D
:1011E00090E87800B1E8800717407B4118EA0208D0
:1011F00054EB080419EA020955EB09051AEA020A38
:1012000056EB0A0678C080410130BDE8F007704710
:101210002DE9F007524290E87800B1E880071740C6
:10122000DB1B18EA020874EB080419EA020975EBE3
:1012300009051AEA020A76EB0A0678C090E87800F7
:10124000B1E880071740BB4118EA020874EB0804B4
:1012500019EA020975EB09051AEA020A76EB0A0691
:1012600078C080414042BDE8F00770472DE9F001A9
:1012700052424FF0040890E8300091E8C000A31BF0
:101280001340E41AF618EB1B1340ED1AFF1830C098
:10129000C0C1B8F10108EED1BDE8F001704700BF50
:1012A00000B592E8DC072DE9DC07B1E8805702B40D
:1012B000A7FB02510A95A8FB020BE7FB6310E9FBB1
:1012C00062B00B91A8FB0351EAFB6201E7FB64B536
:1012D000E7FB6605E8FB6615CDF830B0A9FB03B661
:1012E000EAFB6316ECFB6356E8FB640BE9FB641B4B
:1012F000EAFB645BECFB646B0D90ACFB0230059C7D
:10130000EEFB6250E9FB6460EAFB64B0E7FB64312A
:10131000E8FB6451069CE8FB6461E9FB64B1EAFB0D
:1013200064010E93A7FB0432079CE7FB6462E8FBB1
:1013300064B2E9FB6402EAFB6412049CE9FB6453B7
:10134000EAFB6463089CE7FB64B3E8FB6403E9FB26
:101350006413EAFB64230F955DF8049B99E800068B
:10136000DDF80080A9FB0854EAFB68B4DDF81080C2
:10137000ECFB6804EEFB6814E9FB6824EAFB6834C4
:10138000DDF80480EEFB6865E9FB68B5EAFB6805FB
:10139000DDF81480ECFB6815EEFB6825E9FB683589
:1013A000EAFB68450F96DDF80880AEFB0876E9FB9E
:1013B0006806EAFB6816DDF81880ECFB6826EEFB91
:1013C0006836E9FB6846EAFB6856DDF80C80ECFB02
:1013D00068B7EEFB6807E9FB6817EAFB6827DDF8EA
:1013E0001C80ECFB6837EEFB6847E9FB6857EAFBBB
:1013F000686708B000BD00BF2DE9F14F87B0FFF767
:101400004FFFDDF81C8008F1200888E8FF00FFBCD2
:1014100087E87F08BDE8F08F00B591E89857A3FBF7
:1014200003520195A3FB0401E3FB6420E3FB671077
:101430000292A3FB0752E3FB6802E4FB6415E3FBA3
:101440006805E3FB69250391A4FB07B6E3FB692666
:10145000E3FB6A56E4FB670BE4FB682BE3FB6A5B88
:10146000E3FB6C6B0490A4FB0810E4FB6950E3FB06
:101470006C60E3FB6EB0E7FB6721E4FB6951E4FBC2
:101480006A61E3FB6EB1E4FB6E010592A7FB0832D3
:10149000E4FB6A62E4FB6CB2E4FB6E02E7FB6E12F3
:1014A000E7FB6853E7FB6963E4FB6CB3E7FB6C03A2
:1014B000E7FB6E13E8FB6E230695A7FB0954E7FBD9
:1014C0006AB4E7FB6C04E8FB6C14E8FB6E24E9FBF0
:1014D0006E34E8FB6865E7FB6AB5E8FB6A05E8FB84
:1014E0006C15E9FB6C25E9FB6E35EAFB6E4507964A
:1014F000A8FB0976E8FB6A06E9FB6A16E9FB6C269D
:10150000EAFB6C36EAFB6E46ECFB6E56E8FB69B70D
:10151000E9FB6907E9FB6A17EAFB6A27EAFB6C3714
:10152000ECFB6C47ECFB6E57EEFB6E6700BD00BF3B
:101530002DE9F14F87B0FFF76FFFDDF81C8008F150
:10154000200888E8FF00FFBC87E87F08BDE8F08F2F
:1015500030B44FF0000310F8014B11F8015B013A71
:1015600084EA050443EA0403F5D1A3F101034FEA39
:10157000D37030BC704700BF4FF0000310F8012B50
:10158000013943EA0203F9D1A3F101034FEAD37011
:10159000704700BF30B411F8014B12F8015B6C408A
:1015A00000F8014B013BF6D130BC70472DE9F00744
:1015B00091E8F807B2E802105B1854EB0C04B2E8AB
:1015C00002104D4156EB0C06B2E802104F4158EBA9
:1015D0000C08B2E8021059EB01095AEB0C0A8941D8
:1015E000B3F1FF3374F1FF3475F1FF3576F1000686
:1015F00077F1000778F1000879F101097AF1FF3AF3
:1016000051F100015B184C414D4156F1000657F174
:10161000000758F1000859EBD1795AEB010A80E82C
:10162000F807BDE8F00770472DE9F00791E8F807E3
:10163000B2E802105B1A74EB0C04B2E802108D41A0
:1016400076EB0C06B2E802108F4178EB0C08B2E89A
:10165000021079EB01097AEB0C0A89415B184C41C5
:101660004D4156F1000657F1000758F1000859EBBB
:10167000D1795AEB010A80E8F807BDE8F007704716
:1016800018EB040859EB05095AEB060A5BEB070B4C
:101690005FF0000C4CF1000C18EB050859EB060943
:1016A0005AEB070A5BEB070B50EB0C005FF0000CEA
:1016B00051EB0C0152EB0C0263414CF1000CB8EB06
:1016C000070879F100097AF1000A7BEB040BA841C5
:1016D000B141A241B3416CF1000CBBEB050BB04131
:1016E000B941AA41BB416CF1000C6FEAEC74B8EB54
:1016F000040879EB04097AEB040A7BF1000B70F122
:10170000000071F1000172EBD472A3416CF1000C86
:1017100018EBEC7859EBEC795AEBEC7A5BF1000BB7
:1017200050F1000451F1000552EBDC7653EBEC77FD
:101730004CF1000C18EBEC7059EBEC715AEBEC72BD
:101740005BF1000354F1000455F1000556EBDC7623
:1017500057EBEC77704700BF2DE9F14F87B0FFF7EB
:101760009FFDDDF81080DDF81490DDF818A0FFF77C
:1017700087FFBDE8000FFFF783FF03B05DF8048B20
:1017800088E8FF00BDE8F08F2DE9F14F87B0FFF743
:1017900043FEDDF81080DDF81490DDF818A0FFF7A7
:1017A0006FFFBDE8000FFFF76BFF03B05DF8048B20
:1017B00088E8FF00BDE8F08F01480078704700001E
:1017C0002800002070B50BF0DDFF134C6FF02705EB
:1017D00028B90CF00DF810B90CF014F820B10F482E
:1017E00060606570082010E00BF0A1FF40B90BF0BD
:1017F000A8FF28B90BF0BCFF10B90BF0CDFF30B13A
:1018000006483130606065700420A07070BDE8212A
:10181000742003F0BFFB0000280000202C160100FC
:10182000074991F90220904203DA91F90120904290
:1018300001DC104670474968801A0856704700005E
:10184000280000202DE9F0411C4690460D46064632
:101850006FF01507042804D81CB10BF00AFCA8424D
:1018600002D83846BDE8F0810548424650F82600C7
:1018700018B14057824200DD024622700020F1E795
:10188000A00B0020002819D003781349134A13B184
:10189000012B0ED011E00379012B00D06BB94379F5
:1018A0000BB1012B09D18368643B8B4205D2C06820
:1018B0000EE00379012B02D00BB100207047437971
:1018C0000BB1012BF9D1C368643B8B42F5D2806820
:1018D0009042F2D8012070473D860100FF3F420F41
:1018E00010B5054C206810B1804700202060BDE88D
:1018F000104002F0BDB80000300000202DE9F0419A
:101900000E46050004D000F047F8074600240BE01F
:101910006FF01500BDE8F081204600F043F890F824
:10192000260030B1641CE4B2BC42F5D36FF00B006A
:10193000F0E72746FF2CF9D0204600F033F80446A4
:101940000BF063FD84F828702146084802F068F81F
:1019500084F82700202806D00120256284F826007C
:1019600037700020D6E76FF02200D3E735D10000B2
:1019700010B5820702D06FF00D0010BD054A11703E
:10198000506028B101EB41010A0100210BF0BEFFBC
:10199000002010BD3400002001480078704700008E
:1019A0003400002005490A78904201D30020704796
:1019B000496800EB400001EB001070473400002044
:1019C0000E4910B591F82D00202812D091F82D0065
:1019D000A1F58062C0EBC00002EB800091F82D10F1
:1019E0004068C1EBC10152F82120BDE8104004213C
:1019F000104740F68701702003F0CCFAB40F0020A6
:101A000070B50546202A28D019481A4C00EB831CD3
:101A100003EB43030CEB42002344202922D00CEBC0
:101A2000410140784C784870204601460CEB41005B
:101A3000914205704078F8D193F82220202A1ABFED
:101A40000CEB4202547083F8214020220CEB410C35
:101A50008CF8012083F8221070BD40F29221702092
:101A600003F098FA93F82040407883F82000DBE7F1
:101A7000340F0020B40F00202DE9FF4F85B015462C
:101A80000C4602F0E3F9284420F07F4102912068DF
:101A9000401A0002C11700EB11600012002800F389
:101AA000F080DDF82080CA4808EB48010844039024
:101AB00090F820502020C74EEA460DF104098DF819
:101AC0000000202D1CBFC44800EB881B39D000BF8C
:101AD000C5EBC50006EB800000F10801C06827686F
:101AE000381A0002C21700EB1260001229D4E089F4
:101AF00000B3C889F0B90868049003F0A1F8B0F504
:101B0000C67F08BF0D200BD0A0F54070563808BF27
:101B10001C2005D0A0F500709F3814BF0020322093
:101B2000411C0498381A0002C21700EB1260001220
:101B3000884206DB0BEB45008AF800504578202DE3
:101B4000C6D19AF8000089F80000202D1CBFA248D9
:101B500000EB881B00F03881C5EBC50006EB800761
:101B60006068D7F8088007F10801A8EB00000002C0
:101B7000C21700EB1260001227D4C889002800F0B9
:101B80002381E089002840F01F81D4F800A003F0F1
:101B900057F8B0F5C67F08BF0D200BD0A0F54070F8
:101BA000563808BF1C2005D0A0F500709F3814BF20
:101BB00000203220411CA8EB0A000002C21700EBF3
:101BC00012600012884280F2FF8089F80050397E4E
:101BD000207C814206D90BEB45004578202DBBD1F6
:101BE00000F0F2B89DF80400C0EBC00006EB8000E6
:101BF000C18AC568E1BBE189D1B3876803F020F8E9
:101C0000B0F5C67F08BF0D200BD0A0F54070563848
:101C100008BF1C2005D0A0F500709F3814BF00201D
:101C20003220411CE81B0002C21700EB12600012B8
:101C300088421DDA03F004F8B0F5C67F08BF0D2016
:101C40000BD0A0F54070563808BF1C2005D0A0F579
:101C500000709F3814BF002032209DF80410401CF3
:101C6000C1EBC10106EB81018968084420F07F4582
:101C70000298281A0002C11700EB11600012002818
:101C800003DD09B00020BDE8F08FD4E90010401A50
:101C9000284425F07F4120F07F40C4E900100898D7
:101CA00004900398EA460DF1040890F82050202093
:101CB0008DF80000202D3CD04748049900EB811B93
:101CC000C5EBC50006EB800000F10801C06827687D
:101CD000381A0002C21700EB1260001229D4E08902
:101CE00000B3C889F0B9D1F8009002F0A9FFB0F5AF
:101CF000C67F08BF0D200BD0A0F54070563808BF36
:101D00001C2005D0A0F500709F3814BF00203220A1
:101D1000411CA7EB09000002C21700EB1260001281
:101D2000884206DB0BEB45008AF800504578202DF1
:101D3000C6D19AF8000088F800000498202D1CBF36
:101D4000254901EB801B3FD0C5EBC50006EB8007A2
:101D50006168D7F8089007F10800A9EB01010902B2
:101D6000CA1701EB1261091222D4C08960B3E0895D
:101D700050BBD4F800A002F063FFB0F5C67F08BFE7
:101D80000D200BD0A0F54070563808BF1C2005D0A0
:101D9000A0F500709F3814BF00203220411CA9EB31
:101DA0000A000002C21700EB1260001288420BDA30
:101DB00088F80050387E217C88427FF613AF0BEB09
:101DC00045004578202DBFD109B00120BDE8F08F36
:101DD000B40F0020B40B0020340F00202DE9F84F81
:101DE0000F46064601EB47004B4999460844924688
:101DF00090F8204020201070A1F58068202C1CBF96
:101E0000464800EB871B38D0C4EBC40008EB8000C9
:101E100000F10801C0683568281A0002C21700EBFB
:101E20001260001229D4F08900B3C889F0B908689B
:101E3000009002F005FFB0F5C67F08BF0D200BD063
:101E4000A0F54070563808BF1C2005D0A0F50070E2
:101E50009F3814BF00203220411C0098281A00022D
:101E6000C21700EB12600012884206DB0BEB440045
:101E70008AF800404478202CC6D19AF8000089F8EE
:101E80000000202C1CBF254800EB871A40D000BF63
:101E9000C4EBC40008EB80077068BD6807F1080157
:101EA000281A0002C21700EB1260001222D4C8895F
:101EB00070B3F08960BBD6F800B002F0C1FEB0F597
:101EC000C67F08BF0D200BD0A0F54070563808BF64
:101ED0001C2005D0A0F500709F3814BF00203220D0
:101EE000411CA5EB0B000002C21700EB12600012B0
:101EF00088420DDA89F80040387E317C884202D869
:101F00000020BDE8F88F0AEB44004478202CBFD1B4
:101F10000120BDE8F88F0000B40F0020340F00202E
:101F20002DE9F04182B0054614468846D08901AAC1
:101F3000694601F0A7FF02F0B5FC01F087FF0746F4
:101F4000204890F82D10202904D0C068401D20F0B2
:101F50007F4124E0E08905F10906B0B102F0A2FF5B
:101F600098B902F06DFEB0F5C67F08BF0D200BD00A
:101F7000A0F54070563808BF1C2005D0A0F50070B1
:101F80009F3814BF002032200644B8F1000F04D15E
:101F90000098874284BF381A064426F07F41D4E96E
:101FA0000020801A084420F07F40C4E90010A942B4
:101FB00024BF02B0BDE8F081A068401CA06002B060
:101FC000BDE8F081B40F00202DE9F04F97B017461F
:101FD0008B46054602F0E8F9044602F063FC06462B
:101FE000BBF1010F18BFBBF1020F05D040F65D1128
:101FF0004FF0700002F0CEFFF84901200860F84968
:102000008968086000208DF84E000C90401E0D90ED
:10201000F449C7EBC70001EB800000F108010DF1A6
:10202000380891E80E1088E80E10806912900EA80A
:1020300000F0C4FB0790EC48BDF84680808BADF8FB
:102040004C00B8F1000F04BF002006900BD0012017
:102050000690E54890F82A0028B902F023FF0028EE
:1020600008BF012700D0002702F0EAFDB0F5C67FC7
:1020700008BF0D200BD0A0F54070563808BF1C20BB
:1020800005D0A0F500709F3814BF002032204FF01B
:102090000009CA460B90464538D90799DFF84C939A
:1020A0006FEA060C6B4616AA01EB0C00494504D9F1
:1020B00040F26F51702002F06DFFCD498C4504DD78
:1020C0004FF4AE61702002F065FFCA498C4504DA16
:1020D00040F27151702002F05DFFC7498142DCBFC0
:1020E00000F5F700A0F1F85005DD0028BCBFA0F511
:1020F000F70000F1F850194601F0C4FE00980E995F
:1021000020F07F400090081A20F07F49002F18BF70
:10211000DDF82CA005D19DF84C00002818BF4FF029
:10212000020AB4F1807F08D00E98001B0002C1178C
:1021300000EB11600012012801DA03200DE057B115
:10214000A94890F82B0030B19DF84C0010F1000A1E
:1021500018BF4FF0020A2546002082440E98A0EBDB
:10216000090020F07F42501E20F07F40411B0902F1
:10217000CB1701EB13610912514504DBB9F1000FD4
:1021800018BF0E922DE0B9F1000F05D09DF84D005B
:1021900020B902F07DFB08B1AFB90CE02FB99DF872
:1021A0004C00002818BFAAF1020A4FF000098DF870
:1021B0004C904E4607E09DF84C0020B100208DF871
:1021C0004C00AAF1020A0E98A0EB0900401E20F074
:1021D0007F40411B0902CA1701EB126109125145E8
:1021E0007EDB149705464FF00009069F01F0B4FF0F
:1021F000281A0002C11700EB11604FEA202A02F0F2
:102200001FFDB0F5C67F08BF0D200BD0A0F54070B4
:10221000563808BF1C2005D0A0F500709F3814BFA9
:10222000002032200B30824520DABBF1010F02D0B2
:10223000149840B112E0B4F1807F1CD140F6DE0169
:10224000702002F0A7FEB4F1807F07D0601B00026F
:10225000C11700EB11600012042804DD2C46204653
:1022600001F0A0FF07E0002863DC04E02C462046D4
:1022700001F098FFB946B4F1807F55D00E980F9ABF
:10228000001B121B20F07F4022F07F42012850D318
:10229000B0F5000F98BFB2F5000F4AD820460BF0FA
:1022A00061F90799524A0D1A4FF0000AAA1A7AF1F9
:1022B000000218D34E4B421AD31A7AF1000312D3FC
:1022C0004A4BAB423EBFC0F5902000F1F450451898
:1022D00009D3934231D2C1F5902101F1F45100E0CC
:1022E00027E008444542404FB87F58B3BBF1010F87
:1022F00005D0022002F092F9012002F08FF9B045DA
:102300002CD2A5EB06014FF0020002F0D1F890B3F9
:10231000B8F1000F1CBFA5EB0801012034D000BFAD
:1023200002F0C6F838B32FE040F6F111702002F049
:1023300031FE17B00020BDE8F08F40F6C2217020BA
:1023400002F028FEB04534BF304640461E30A84259
:10235000CCDB40F60521702002F01CFE0CD9A5EB69
:102360000801012002F0A4F828B1002E1CBFA91B0F
:10237000022009D0D4E730E056EA080004D040F645
:102380004111702002F006FE2946002002F090F86C
:1023900018B306980126002804BF97F82B000028E0
:1023A00002D0B9F1000F33D097F82A0018B102F02B
:1023B0004DFC87F82AA0B9F1000F2CD00B98201AF9
:1023C00020F07F41052002F073F8E0B397F82B006E
:1023D000002808BF87F82B6025E00FE008050040C3
:1023E0003C000020B40B0020B40F0020FF7F841EAF
:1023F0000040420F00C0BDF00080841E022002F0A9
:102400000DF9012002F00AF917B00020BDE8F08FA5
:1024100097F82A0090B197F82B0020B1052002F020
:10242000FDF887F82BA0A5EB0800A0F11901002901
:102430000FDC40F62E21702002F0ACFD02F022FCF1
:1024400087F82A60B7E7FFE740F2F221702002F038
:10245000A1FD032002F02CF8C0B10F488068C0F83D
:1024600000A00E48C0F800A00CAC94E80F00386043
:102470007960BA60FB6010AC94E80F003861796154
:10248000BA61FB6117B00120BDE8F08F40F636213C
:10249000702002F07FFD00003C0000200805004095
:1024A0002DE9F05F064608789074C87A5074887AEF
:1024B00010740889D081DFF8988170689A46A0FB73
:1024C000087914460D4630680BF04CF8C11928788D
:1024D0004FEA680C49F10002A8F1010ECCF1000BA3
:1024E00068B1E089677CC043D5F8049004F10C0220
:1024F00060455FDD4FF4AE61702002F04BFDDFF808
:102500005491D5E9040311EB090A42F10009B0EB3B
:102510000A0A73EB090945D2411A73EB020141D350
:10252000C71B7068A060474505D3401CA7F1F4574E
:10253000A7F59027A060E0896D68C143667C781894
:1025400004F10C02774504D940F26F51702002F07B
:1025500021FD6145CEDC59452FDB8045DCBF00F510
:10256000F700A0F1F85005DD0028BCBFA0F5F7008A
:1025700000F1F850214601F085FC206820F07F41F1
:102580007819401C2160002E08BF7A3003D0012E3C
:1025900008BF483034D101F059FC20F07F40606022
:1025A000BDE8F09F3068401E20F07F40206000F5BD
:1025B0007A70F4E70146584504DA40F27151702010
:1025C00002F0E8FC8045DCBFA1F1F450A0F59020BA
:1025D00005DD0028BCBF01F1F45000F59020214634
:1025E00001F050FC2068002F20F07F4109F101002C
:1025F000216008BF7A3008D0012F08BF483004D0CE
:1026000040F22461702002F0C5FC01F01FFC20F0B4
:102610007F4161607068A060002122463068FFF74A
:102620007FFC3268534621462869FFF725FA0028C7
:1026300018BFBDE8F09FD4E900213068891A20F066
:102640007F42084420F07F40C4E90020BDE8F09FAD
:102650000080841E0040420F70B51E4D95F82D007D
:10266000202818BF70BD95F82C2002EB42002844AA
:1026700090F82040202C27D0174B03EB821101EB60
:102680004401497880F82010FF2085F8290085F85A
:102690002D402146022000F0CBF8002085F82800CC
:1026A000A8770E49C4EBC40001EB8000007E00282F
:1026B00008BF02F0C9FD002009494968002908BF88
:1026C00070BDBDE8704008474FF44B71702002F0B8
:1026D00061FC0000B40F0020340F0020B40B002078
:1026E0003C0000202DE9F05FDFF8C08098F82C5006
:1026F00005EB4500404490F82140202C08BFBDE880
:10270000F09FDFF8ACB0DFF8ACA0AAF560790AEB77
:102710008517072617F8140001280ED0042808BFD3
:1027200002260AD005280CBF0326062805D040F64D
:10273000A8014FF0700002F02DFCBBF1000F18BF94
:10274000AFF30080EFF3108072B607EB44014A78D4
:1027500005EB4501414481F8212091F82220A24255
:1027600004BF202281F82220C0B12A462146012040
:1027700000F05EF8C4EBC40109EB810059F8212098
:1027800040683146904798F82C5005EB450040448E
:1027900090F82140202CBAD1BDE8F09F06480028CF
:1027A00018BFAFF3008062B6DFE70000B40F00206F
:1027B00000000000340F00200000000010B50446A7
:1027C00000680AF0CFFE0246E089217B144B0844E2
:1027D000411C50189A4204D940F26F51702002F007
:1027E000D9FB104A914204DD4FF4AE61702002F033
:1027F000D1FB0D4A914204DA40F27151702002F08F
:10280000C9FB0A498142DEBF00F5F700A0F1F8508C
:1028100010BD0028BCBFA0F5F70000F1F85010BDB6
:10282000FF7F841E0040420F00C0BDF00080841E68
:10283000DFF858C010B500230CEB821C07281FD20C
:10284000DFE800F0050505050404040001230CF889
:102850001100002B08BF10BD02EB42020C480244DD
:1028600092F8220020280EBF82F821100CEB4000C5
:10287000417020200CEB4103587082F8221010BDEB
:102880004FF41A71702002F085FB0000340F002015
:10289000B40F00202DE9F74F1746DFF858A102EBDF
:1028A00047005044884690F820400129254618BF2B
:1028B000B8F1020F05D040F66C214FF0700002F025
:1028C00069FB4FF0000B202D44D09AF81E00002623
:1028D000002808BF022601F03FFC474BC4EBC401AF
:1028E00003EB81018A68C968121A091A22F07F4233
:1028F00021F07F41964299BFB2F5000FB1F5000F6C
:102900003E4A02EB871923D9224609EB42014C7853
:10291000202C15D0C4EBC40103EB810CDCF80810AB
:10292000DCF80CC0091A21F07F41ACEB000C2CF054
:102930007F4C8E429CBFB1F5000FBCF5000FE3D871
:10294000202A05D03B4620210420FFF759F80446F1
:10295000AC420FD19AF82E0020280FD00099DAF857
:102960000800891C081A0002C11700EB1160001250
:10297000002803DD03B00020BDE8F08F202D16D025
:102980002A4641460098FFF71FFB00281FBF8AF820
:102990002E50022003B0BDE8F08F3B462A4620218E
:1029A0000420FFF72DF803B00020BDE8F08F9AF85F
:1029B0002A0018B102F04AF98AF82AB09AF82B00D6
:1029C00020B1052001F02AFE8AF82BB0042001F086
:1029D00025FE01F093FE20208AF82E00084880682A
:1029E000C0F800B00748C0F800B003B00120BDE84F
:1029F000F08F0000B40F0020B40B0020340F002033
:102A00003C00002008050040064910B591F82D2033
:102A1000202A1CBF887710BD40F27A31702002F066
:102A2000B9FA0000B40F00202DE9F04F694E0746B7
:102A30008DB096F82D008846202855D096F82D00A8
:102A400006F10804C0EBC000A6F5806909EB800A16
:102A500020208DF8200096F82C000AAA00EB4000F8
:102A6000304409A990F82050F0680290306838444A
:102A700001F008FADAF80C000999652F084438D3F8
:102A8000554A0021D21B71EB010232D32268821A0F
:102A900022F07F42B2F5000F2BD820F07F4060601B
:102AA000304684F8108090F82C000DF1200A202D7B
:102AB0001CBF4A4901EB801B50D000BFC5EBC500CD
:102AC00009EB80086168D8F8086008F10800711AFD
:102AD0000902CA1701EB126109122DD4C08900281E
:102AE0003CD0E08948B139E04FF43361702002F006
:102AF00051FA0DB00120BDE8F08F20680C9002F073
:102B00009FF8B0F5C67F08BF0D200BD0A0F5407030
:102B1000563808BF1C2005D0A0F500709F3814BFA0
:102B200000203220411C0C98301A0002C21700EB22
:102B300012600012884211DA8AF8005098F81810D2
:102B4000207C814205D8029860600DB00220BDE86B
:102B5000F08F0BEB45004578202DAFD1052001F01B
:102B60005DFD1C4C4FF0FF30606094F82C309DF8F8
:102B700020202021202A03D00520FEF741FF04E079
:102B800003EB4300204490F8200094F82C201349D4
:102B900001EB821194F82D2001EB4201487020686E
:102BA00038442060FF2084F82900607E012805D188
:102BB000E068401E20F07F4001F094FB9DF820006B
:102BC000202803D00648407802F0B8FA0DB0002063
:102BD000BDE8F08FB40F00200040420F340F0020FA
:102BE0003C000020064810B590F82D1020291CBF8D
:102BF000007E10BD40F62A31702002F0CBF90000B3
:102C0000B40F0020C0EBC00170B50748074A00EBC5
:102C1000810001690830A1FB0245FFF7CFFD0019D3
:102C200045F1000170BD0000B40B00200080841E3F
:102C3000F8B56B4D6B4A05F58064012694F82A10AF
:102C400008287CD2DFE800F0047097A9C741AEB332
:102C500019B902F017F884F82A60E08A10B102F07E
:102C600021F980B1FFF7F8FCFF2084F827006168A4
:102C7000B1F1FF3F03D0052001F01AFC40B1607EA6
:102C8000012810D109E040F63401702002F082F9E9
:102C900040F63901702002F07DF9E068401E20F016
:102CA0007F4001F01FFB94F82D0094F82D10C0EB2D
:102CB000C00005EB80004068C1EBC10155F8212040
:102CC00001B00121BDE8F040104794F82B0040B15D
:102CD00019B901F0D7FF84F82A60002084F82B008E
:102CE000F8BDFFF7B9FC4FF0FF30606094F82700A3
:102CF0008DF800009DF8000088B194F82D0094F83C
:102D00002D10C0EBC00005EB80004068C1EBC10195
:102D100055F8212001B00621BDE8F04010474FF4DE
:102D20000561702002F036F9FFF796FC84F8266002
:102D300002F0B8F820B194F82A0030B109E04AE076
:102D400040F65E01702002F025F901F09BFF84F847
:102D50002A6094F82D0094F82D10C0EBC00005EB0C
:102D600080004068C1EBC10155F8212001B000216D
:102D7000BDE8F040104701F077FDE08A10B102F0A5
:102D800091F828B101F084FD002818BF6677F8BDDE
:102D900040F66801702002F0FDF813480660906864
:102DA0000660F8BD1078BDE8F84002F0C7B9FFF73B
:102DB00053FC94F82D0094F82D10C0EBC00005EBE7
:102DC00080004068C1EBC10155F8212001B0052108
:102DD000BDE8F040104740F67B01702002F0DAF8C1
:102DE000B40B00203C000020080500402DE9F34F03
:102DF0008246F04895B00068EF4DC005C00D0ED07A
:102E0000103840B20028B8BF00F00F0000F1E020F9
:102E1000ACBF90F8000490F8140D40090DD016983E
:102E20004FF0000B0078002818BF012818D040F29E
:102E300004714FF0700002F0ADF895F82D004FF0DE
:102E4000010B202807D01698007848B14FF4E061B4
:102E5000702002F09FF840F2FD61702002F09AF8B5
:102E6000D64C24B1002140F20770AFF3008000205F
:102E7000CDE91000D249CAEBCA0001EB80004FF047
:102E80000109009024B1002140F21270AFF30080DC
:102E9000B9F1000F0AD000BF95F82C604FF0000880
:102EA00085F82980BBF1000F07D038E0C54800281D
:102EB00018BFAFF3008062B6EEE73746012020EA84
:102EC0000706C148402200EB871100EB86100AF08C
:102ED000A3FC24B1002140F22F50AFF3008007EB98
:102EE000470106EB4600294428440A8C028491F8E5
:102EF000221080F8221024B1002140F23350AFF3A9
:102F0000008024B1002140F21C70AFF3008095F8DE
:102F100029008DF808009DF808000028B2D124B1DE
:102F2000002140F22670AFF3008002A801F01AF9E8
:102F3000DDE90201CDE90E01334609AA0EA8169972
:102F4000FFF7AEFA24B1002140F22D70AFF30080FC
:102F50009D4A0E9902EB861709A817F81A20012A34
:102F600018BF022A38D1099A0A9BA2EB010222F06B
:102F70007F42A3EB0101CDF8448021F07F41022A7A
:102F800064D3B2F5000F98BFB1F5000F5ED84FF0D3
:102F9000010814AB13AA3146FEF720FF00285DD0CC
:102FA0009DF84C109DF8502033468A425AD0052097
:102FB000FEF726FD07EB4A0148709DF84C002028DB
:102FC0001CBF07EB400080F801A057D032465146A5
:102FD0005FF00300FFF72CFC24B1002140F23270B7
:102FE000AFF300807948002818BFAFF30080EFF3FB
:102FF000108972B624B100214FF4E760AFF300806E
:1030000095F829008DF808009DF8080000287FF445
:1030100039AF24B100214FF4E860AFF3008009AF6D
:10302000009897E80E1000F10807B8F1000F87E844
:103030000E100D99816153D024B1002140F24D70E2
:10304000AFF30080BBF1000F3AD11FE0324651468A
:103050000420FFF7EDFB4FF00108BDE73246514673
:103060000420B7E7202919BF07EB4100407806EBA1
:103070004600284408BF90F820009BE706EB460175
:10308000294481F820A0CDF844809FE7119810F0E2
:10309000FF0F15D095F82D00202811D124B1002163
:1030A00040F25270AFF30080324602210E98FFF7D3
:1030B000F1FB109020B916980078F0B101282BD0C0
:1030C00024B1002140F26F70AFF30080FF20BBF10C
:1030D000000F18BF85F8290027D000BF4FF0010866
:1030E00024B100214FF4F060AFF300801098384E07
:1030F000022823D0012829D02DE024B1002140F25C
:103100005A70AFF3008095F82C2051460420FFF749
:103110008FFB4FF00108E3E7002C3FF4B3AE002132
:1031200040F26570AFF30080ACE695F82C200121E9
:10313000914385F82C1085F82900CFE7A8680E99EF
:10314000401A0AF00FFA716821B904E071684FF073
:10315000FF3001B18847B9F1000F24D024B100211C
:103160004FF4F260AFF30080B8F1000F11D095F882
:103170002C0000EB4000284490F82100202808D0C3
:1031800024B1002140F29770AFF30080707801F015
:10319000D5FF24B1002140F29C70AFF3008017B03E
:1031A0004046BDE8F08F0748002818BFAFF3008005
:1031B00062B6D3E704ED00E0B40F00200000000089
:1031C000B40B002000000000340F002000000000BD
:1031D0003C0000202DE9F14FC9488AB00068C005C5
:1031E000C00D11D0103840B20028B8BF00F00F0059
:1031F00000F1E020ACBF90F8000490F8140D4009F5
:1032000008BF4FF0010B01D04FF0000B0A98007877
:1032100000281EBF00200BB0BDE8F08F4FF0000A61
:10322000B84DB94CD14625B1002140F2B950AFF3A9
:10323000008094F82C6084F829904FF0000825B1A4
:10324000002140F2BE50AFF30080BBF1000F23D14C
:103250003746012020EA0706AC48402200EB8711E0
:1032600000EB86100AF0D8FA25B1002140F22F5069
:10327000AFF3008007EB470106EB460021442044F2
:103280000A8C028491F8221080F8221025B10021C6
:1032900040F23350AFF3008025B1002140F2C65018
:1032A000AFF3008008A800F05DFFDDE90801CDE97B
:1032B000060133466A4606A80A99FFF7F1F825B1D8
:1032C000002140F2CC50AFF3008094F82D0020286C
:1032D00019D0E0680099091A0902CA1701EB1261B6
:1032E000091210D5DDE90021891A20F07F43084436
:1032F00020F07F40CDE90030934202D20298401C7A
:1033000002904FF001084DB1002140F2DF50AFF3C1
:103310000080002140F2E550AFF30080009906984C
:10332000019A091A101A21F07F4120F07F40B1F56F
:10333000000F98BFB0F5000F03D8BBF1000F0CD100
:1033400003E0BBF1000F39D0C0E033466946704856
:10335000069AFEF791FB48EA0008B8F1000F23D067
:1033600000980AF0FFF8BDF80E109DF80C20694B8C
:103370001144491C4218984256D8654881427CDC69
:10338000404281427ADB581C9042DCBF02F5F702D2
:10339000A2F1F85205DD002ABCBFA2F5F70202F146
:1033A000F8520A98C0E904294FF0010A002D7CD098
:1033B00000214FF4BF60AFF3008087E007980290D0
:1033C000BDF80E0008AA05A9DDF8188000F05AFD26
:1033D00001F068FA00F03AFD074694F82D00202825
:1033E00027D0E068401D20F07F4000BFDDE90021CC
:1033F000891A0090084420F07F40019000984045D1
:1034000002D20298401C02901F208DF80C000098F8
:103410000AF0A8F8BDF80E109DF80C203D4B1144A1
:10342000491C421898422AD940F26F51702001F08D
:10343000B1FDBDF80E0008F10906B0B101F032FD92
:1034400098B901F0FDFBB0F5C67F08BF0D200BD089
:10345000A0F54070563808BF1C2005D0A0F50070BC
:103460009F3814BF4846322006440598874284BFDF
:10347000381A064426F07F40B8E703E00AE0244803
:10348000814204DD4FF4AE61702001F083FD2248DB
:10349000814204DA40F27151702001F07BFD1F4837
:1034A0009042D8BF02F5F70200E00FE0D8BFA2F1CA
:1034B000F85205DD002ABCBFA2F5F70202F1F8526E
:1034C0000A984FF0010AD046C0E904291AEA080F09
:1034D00009D00A981149029BD0E90420E3FB01209E
:1034E0000A99C1E9042094F829008DF814009DF888
:1034F000140000287FF497AE0BB05046BDE8F08F63
:1035000004ED00E000000000B40F0020340F0020A4
:103510000040420FFF7F841E00C0BDF00080841E6B
:103520002DE9F14F944D8CB095F82C0000200990B6
:1035300006900120A5F180094FF0000807468F4C46
:10354000CDF81C0000F008FE089024B100214FF4D3
:10355000F660AFF30080079800283CD085F82980FA
:1035600024B1002140F2B570AFF3008095F82CA093
:10357000402227EA0A0609EB861009EB8A118346E6
:103580000AF04AF924B1002140F22F50AFF3008035
:1035900006EB46000AEB4A012844294400900A8CB5
:1035A000028491F8221080F8221024B1002140F208
:1035B0003350AFF3008095F829008DF808009DF88E
:1035C000080078B1002C1CBF002140F2BB70B9D0BC
:1035D000AFF30080B6E76A48002818BFAFF3008059
:1035E00062B6BBE724B1002140F2BF70AFF30080A8
:1035F0000C981BF8100003287DD1009A0C9992F8C2
:103600002000884214BF4FF0000A4FF0010A02F177
:10361000200C8346202209EB861303E0024603EBCD
:1036200042004078884202D020280AD0F6E72028BD
:1036300007D0834507D103EB4B0040788CF800009E
:1036400007E040460CE003EB400003EB420140780A
:10365000487024B1002140F29A40AFF30080384610
:10366000C34610EA0A0F18BFBB4600284FD024B14A
:10367000002140F2C470AFF30080324601200C9963
:10368000FFF7D6F824B1002140F2CD70AFF30080EF
:103690003C48002818BFAFF30080EFF3108072B6EB
:1036A000079024B1002140F2D270AFF3008095F86A
:1036B00029008DF808009DF8080038B1002C1CBFC7
:1036C000002140F2D6703FF43DAF81E7BBF1000F1F
:1036D0000AD095F82D00202806D1324602210898FC
:1036E000FFF7D8F80690F8B124B1002140F2EA7053
:1036F000AFF3008000E00AE095F82C0027EA000014
:1037000085F82C00FF2085F829000120099024B1BC
:10371000002140F2F370AFF3008006981A4E0228A1
:1037200009D001280FD013E094B1002140F2E570D8
:10373000AFF30080ECE7A9680898081A09F012FFB7
:10374000716821B904E071684FF0FF3001B188471A
:10375000079848B124B1002140F60700AFF300807C
:1037600009980DB0BDE8F08F0548002818BFAFF3E9
:10377000008062B6EEE70000B40F002000000000F9
:1037800000000000000000003C000020202824BFB2
:1037900000207047C0EBC000034B43F8201003EB40
:1037A0008000426001207047B40B002010B5202833
:1037B00011D20E4991F82C30A1F1800202EB831C4A
:1037C0001CF810303BB191F82C3002EB831212F848
:1037D0001020012A01D0002010BD91F82C200146B4
:1037E0000020FFF725F8012010BD0000B40F0020D5
:1037F0002DE9F84F864E804696F82C00A6F18007FA
:1038000007EB801010F81800002871D096F82C9063
:10381000804D25B1002140F67630AFF3008007EBF4
:10382000891414F81800012818D0C0B204281CBF4D
:103830000528062861D02DB14FF0000140F68230F6
:10384000AFF3008001F0D0FC25B1002140F68630B6
:10385000AFF3008014F818000128E6D1012425B147
:10386000002140F68D30AFF30080002C4BD00020BB
:1038700086F8290025B1002140F69230AFF3008090
:1038800096F82CB0012020EA0B0907EB8B1107EB0F
:103890008910402209F0C0FF25B1002140F22F50CD
:1038A000AFF3008009EB490000EB060A0BEB4B007D
:1038B0003044018CAAF8201090F822008AF82200E7
:1038C00025B1002140F23350AFF3008096F8290073
:1038D0008DF800009DF80000E0B1002D1CBF002114
:1038E00040F69830BBD000BFAFF30080B7E7FFE7EA
:1038F00040F66D31702001F04DFB4A4641460120F3
:10390000FEF796FFA0E74448002818BFAFF30080F9
:1039100062B6ACE725B1002140F69C30AFF30080E1
:103920009AF821300AF1210140461C464FF0200B45
:1039300007EB89120AF1220A04E0A34602EB4B0CC2
:103940009CF80140844202D0202C2BD0F5E7202C9B
:1039500028D0A34204D102EB43004078087005E070
:1039600002EB440002EB4B0140784870BAF1000FC3
:1039700011D025B1002140F29240AFF300809AF8B7
:103980000000A04207D125B1002140F29540AFF3DD
:1039900000808AF800B05DB1002140F29A40AFF398
:1039A000008000E025B100214FF43A60AFF30080C1
:1039B0001A48002818BFAFF30080EFF3108472B6E6
:1039C00096F829008DF800009DF8000038B1002D10
:1039D0001CBF002140F6A6303FF441AF84E786F8D3
:1039E0002C90FF2086F8290054B1002D08BFBDE8B7
:1039F000F88F002140F6B330AFF30080BDE8F88FB8
:103A00000548002818BFAFF3008062B6EDE700005C
:103A1000B40F0020000000000000000000000000C3
:103A200070B50D46064601F02BFA0F4890F82C2091
:103A30000024803800EB821010F8141029B1611CAA
:103A4000CCB2202CF8D3202070BD0848C4EBC401B0
:103A500040F8216000EB8100214645600120FEF71F
:103A6000E7FE204670BD0000B40F0020B40B00201C
:103A70002DE9F84F00F070FB054600F03FFE604C6A
:103A80006068B0F1FF3F1CBF4FF0FF306060A07F67
:103A90005C4F90B9D4E90210401A20F07F404FF4F7
:103AA0000C7109F08AFDE1680844281A0002C11768
:103AB00000EB11600012C00F12D0607E20B394F8AA
:103AC00027008DF800009DF80000E8B100F072FCBE
:103AD00094F82800F0B140F2D531702001F05AFA84
:103AE00094F82D0094F82D10C0EBC00007EB800077
:103AF0004068C1EBC10157F821200821904740F2EE
:103B0000BD31702001F046FAE81C20F07F4000F043
:103B100049FBDDE7012084F8280094F82D002028D7
:103B200021D094F82D90202084F82D0084F82E00C8
:103B3000002684F8266084F82760266000F0B8FE2E
:103B4000207794F82C8008EB480000EB040A9AF8E0
:103B50002000202812D0C0EBC00007EB8000817E3F
:103B6000012905D00AE04FF47671702001F012FAB5
:103B700000F1080201212846FEF7D2F94246012150
:103B80002846FEF787FE0700F8D01F4800EB881094
:103B900010F81900022804D1424649460620FEF7D3
:103BA00047FEFF2084F829009AF82100DFF85C80A6
:103BB00020281CBF98F8010001F0C0FA207F18B13E
:103BC00000F052FE26776677022F0FD0012F18BF24
:103BD000BDE8F88F4FF0FF30D8F80410002908BF77
:103BE000BDE8F88F01B0BDE8F04F0847A068401B62
:103BF00009F0B8FCD8F804100029F3D1BDE8F88F1B
:103C0000B40F0020B40B0020340F00203C00002033
:103C100030B5364C054683B094F82D00202808D0E6
:103C20006068B0F1FF3F09D040F6A121702001F09B
:103C3000B1F94FF42A61702001F0ACF994F82D002D
:103C40002B49C0EBC00001EB80000830FEF7B6FD49
:103C50000146284A2844914204D940F26F5170200D
:103C600001F098F924498D4204DD4FF4AE617020D3
:103C700001F090F921498D4204DA40F2715170202F
:103C800001F088F91E498142DCBF00F5F700A0F180
:103C9000F85005DD0028BCBFA0F5F70000F1F85092
:103CA00001AA694600F0EEF89DF804000F288CBFC9
:103CB000012000200099084420F07F41616094F8C1
:103CC00027008DF800009DF80000002804BF03B015
:103CD00030BD052000F0ECFB00281CBF03B030BD58
:103CE00040F6A821702001F055F90000B40F002023
:103CF000B40B0020FF7F841E0040420F00C0BDF0C7
:103D00000080841E70B51C4C202184F8201084F89B
:103D1000211084F82210002084F82C0084F82D1043
:103D2000421EC4E90002A07784F8260084F8270028
:103D30002077607784F82E1084F82A0084F82B000E
:103D4000A4F182011022887001F8040F521EFAD1EA
:103D500000F0B8FD094D012684F82860FF20287086
:103D6000074801F0CDF9687001F028FAA86000F06A
:103D700033FD84F82F6070BDB40F00203C0000209C
:103D8000E526000000B583B0684600F0EBF9009826
:103D900009F0E8FB019A034B0021E2FB030103B0A9
:103DA00000BD00000080841E70B5064682B01D462E
:103DB000104609F0D7FB0446684600F0D3F92049C5
:103DC0000198A0FB0102301A44BFA0F5F70010F1E2
:103DD000F85004D540F6C831702001F0DBF8884275
:103DE00004DB40F6C931702001F0D4F8154A211ADD
:103DF00000238A1A73F1000218D3DFF848C0021BAF
:103E0000B2EB0C0C73F1000310D30F4B8B423EBF8F
:103E1000C0F5902000F1F450011907D393420AD263
:103E2000C4F5902101F1F4510844414201F10F0021
:103E300002B0281A70BD40F6C221702001F0AAF825
:103E40000080841E0040420FFF7F841E410B48F219
:103E5000376251430A0C094B510202FB0302084826
:103E6000504300F586306E30400D5B4210FB03F38B
:103E7000B2EB532F88BF491C08447047F7C2FFFFBD
:103E80006F0C0100430B48F2376C03FB0CF330B4AA
:103E90001B0CDFF844C05C0203FB0C030F485843C3
:103EA0004FEA505C04EB0C0043F609541CFB04F48D
:103EB00004F5807C43F60855A3EB5C2C2C440CF0F5
:103EC000FF0CB3EB542F84BF4FF0000C401C086074
:103ED00082F800C030BC7047F7C2FFFF6F0C0100D2
:103EE0002DE9F0413B4DD5F80403DFF8EC8010F4E8
:103EF000803F4FF400664FF0E0274FF0000419D0E8
:103F000036480068B0B1C5F84041C7F88062D5F8BE
:103F10004005D8F80010401A20F07F40022802D354
:103F2000B0F5000F06D94FF48030C5F8080304201F
:103F3000FEF77EFED5F8040310F4003F1AD028489F
:103F40000068B8B1C5F84441C7F880622548D0F888
:103F50004005D8F80010401A20F07F40022802D314
:103F6000B0F5000F06D94FF40030C5F8080305205E
:103F7000FEF75EFED5F8040310F4802F1AD01A481D
:103F80000068B8B1C5F84841C7F880621748D0F852
:103F90004005D8F80010401A20F07F40022802D3D4
:103FA000B0F5000F06D94FF48020C5F808030620AD
:103FB000FEF73EFED5F80401002808BFBDE8F081F9
:103FC000C5F80441C7F880620948C168491CC1604E
:103FD000BDE8F08100B0004004B5004040B10040B1
:103FE00044B1004004B0004048B1004008B0004077
:103FF000480000202DE9F041384D2878042868D089
:10400000A81C0122017859B1012908BF6A7002D0A9
:104010006978002958D002210170407800F0FEFA3A
:104020002F4CD4F804034FF0000810F4002F4FF485
:1040300080774FF0E0260AD02A48006838B1032084
:1040400000F0ECFAC6F880720320FEF7F1FDD4F818
:10405000040310F4802F0AD02348006838B10220EE
:1040600000F0DCFAC6F880720220FEF7E1FDD4F819
:10407000040310F4003F0AD01C48006838B1012046
:1040800000F0CCFAC6F880720120FEF7D1FDD4F81A
:10409000040310F4803F08BFBDE8F08114480068B5
:1040A000002808BFBDE8F081002000F0B7FAC6F88C
:1040B000807204202870C5F80480C4F80082BDE82E
:1040C000F0410020FEF7B4BD40F29F416C2000F0AB
:1040D00061FFBDE8F0410720FEF7AABD48000020BF
:1040E000008000404C8100404881004044810040F5
:1040F00040810040012211024FF0E0230020C3F86C
:10410000801103F5C073BFF34F8FBFF36F8FC3F8F8
:1041100000110E4941F8042F431EC1F80433C1F8C1
:104120003C05C1F83C010A4BC3F84005C1F8400109
:104130001B1DC3F84005C1F844011B1DC3F8400511
:10414000C1F84801CA6003494870704700800040C8
:1041500004800040480000200148006870470000CB
:1041600004B5004030B4EFF3108C72B600250B4B51
:104170000B4A00BFD3F80415D3F804412CB1D16821
:10418000491CD160C3F80451F4E7D268BCF1000FB8
:1041900000D162B6C0E9001230BC704700B00040E8
:1041A000480000202DE9F047464E0546B71E3378FB
:1041B000B968012B04BFA942BDE8F0874FF0404029
:1041C000414A1060424A4148C2F8080302F1040C17
:1041D0004FF00004002B62D03E48C2F84803CCF8F0
:1041E0004045C2F8444100BFD2F848014FF0E029F1
:1041F0004FF00108002801BFD2F8040100284FF455
:104200000060C9F880024FF48030C2F80803C2F899
:104210004803C2F840413048D0F800C0A5EB0C0C70
:104220002CF07F4CBCF1020F44D3BCF5000F41D8F9
:10423000C2F840554FF4803CC2F844C32BB1026829
:104240008A1A22F07F42022AF9D3C7F804803C7010
:10425000FFF750FF2148D0F8041564F30101C0F8BE
:104260000415D0F80825022161F30102C0F80825E1
:104270000421C0F81015C0F80C807968C0F800124D
:104280008015C9F88002C9F800011549C005086009
:104290000420BD60707086F80080BDE8F087C2F829
:1042A0004803C2F84045C2F84041CCF84045C2F846
:1042B000444199E70020C2F8400540F293216C2068
:1042C00000F068FE4A00002008F50140FDFFFBFFFA
:1042D00000B00040FDFFFAFF04B500400080004040
:1042E00004F5014070B52A4CA168814214BF012237
:1042F0000022DFF8A0C09CF80050022D02D0002A56
:1043000034D002E0002A08BF70BD62789AB3224B15
:104310004FF080421A60214B9213C3F80823C3F870
:1043200048230022C3F840211D4A1668861B26F048
:104330007F46022E24D3B6F5000F21D8C3F84005DE
:104340004FF48036C3F844632DB11368CB1A23F0C1
:104350007F43022BF9D3134B02214A071A60A06056
:1043600004208CF801008CF8001070BD40F2A121EF
:104370006C2000F00FFE40F2A5216C2000F00AFE38
:104380000020C3F8400540F2B1216C2000F002FE8D
:10439000480000204A00002008F5014000B000401D
:1043A00004B5004004F501400148806870470000F2
:1043B000480000202DE9F0413648354AC0F808236E
:1043C000DFF8D4C0031D00219CF8004084B1334ABB
:1043D000C0F84823C3F84015C0F84411D0F848216C
:1043E0000123002A04BFD0F80401002811D10AE0FB
:1043F000C0F84823C0F84015C0F84011C3F8401574
:10440000C0F84411EAE74FF0E0224FF40060C2F830
:104410008002022C04D040F2BD216C2000F0BAFDD5
:104420001F4E30681F4CC01C20F07F40A2681E4DFC
:1044300090420BD03768D71B27F07F47042F05D356
:10444000B7F5000F02D8FFF7ADFE1BE03068101A79
:1044500020F07F40022813D3B0F5000F10D8134A84
:104460004FF080401060636021706B60EB60400033
:10447000111F086004208CF801008CF8003001E066
:10448000636021706068C5F80002BDE8F08100003B
:10449000FDFFFBFF00B000404A000020FDFFFAFFD7
:1044A00004B50040480000200080004008F50140AD
:1044B0002DE9F041544A0025012492F800C05378B8
:1044C0004FF4A07607287DD2DFE800F0040404044E
:1044D000585858004D4A9768B7F1807F04BF52780A
:1044E000002A03D0BCF1020F05D026E040F24D3186
:1044F0006C2000F04FFD1A1FD2B206EB820202F1CF
:10450000804606F530460022BCF1010F03D0BCF115
:10451000020F08D00EE0042B24BF3768002F08BF1D
:104520004FF0004206E0042B24BF3768002F08BF7D
:1045300042F0804212F0804FE5D1DFF8D4C000F1A4
:10454000100204FA02F2CCF808234FF0400303EB08
:104550008003DBB263441C600CEB8000D0F8403574
:10456000A1EB030323F07F43032B26BFC0F84015C4
:10457000CCF80423C0F8405537D23CE0BCF1000F22
:1045800006D0834204D140F26D316C2000F002FD70
:10459000021FD3B2032B04D34FF4E4716C2000F05C
:1045A000F9FCDFF870C003F1100204FA02F2CCF853
:1045B0000823CCF8482306EB83034CF80350164B32
:1045C0001B6800E01AE0001FCB1A23F07F43C0B243
:1045D0000CEB8000022B0BD3B3F5000F08D8C0F80A
:1045E0004015CCF80423CCF844230120BDE8F08129
:1045F0000021C0F840150020BDE8F08140F2713183
:104600006C2000F0C7FC00004A0000204800002099
:104610000080004000B0004004B500402DE9F843A0
:10462000012600274FF4A078072851D2DFE800F0D8
:10463000040404041919190000F1100106FA01F22A
:104640002649C1F8082301EB80030022C3F8402566
:1046500008EB80028F50224951F820000090BDE8FD
:10466000F883204D011FCCB2297879B16A78824253
:104670000CD11D4A4FF040401060012908BFFFF7E0
:1046800039FD2F7019494FF080708860184904F186
:10469000100006FA00F0C1F80803C1F84803A000B2
:1046A0000844D0F84005134A1268801A20F07F4071
:1046B000022807D301EB84020020C2F8400508EB72
:1046C00084000F500C4850F824000090BDE8F88397
:1046D00040F2F5316C2000F05DFC000000800040ED
:1046E000408100404A00002008F5014048000020B9
:1046F00000B0004004B5004040B100402548244AC5
:10470000C0F808232449031D91F800C00021BCF122
:10471000000F10D0214AC0F84823C3F84015C0F854
:10472000441100BFD0F84821002A04BFD0F804018A
:10473000002811D10AE0C0F84823C0F84015C0F89D
:104740004011C3F84015C0F84411EBE74FF0E022E8
:104750004FF40060C2F8800211484FF0FF32C0F8F9
:104760000823C0F84015C0F8401100F10402C2F857
:104770004015C0F8441102F10402C2F84015C0F817
:10478000481102F10402C2F84015C0F84C117047FC
:10479000FDFFFBFF00B000404A000020FDFFFAFFD4
:1047A0000080004010B507280DD2DFE800F00404B7
:1047B000040406060600064902E0001F0549C0B2CF
:1047C00001EB800010BD40F295316C2000F0E2FB5F
:1047D0004081004040B1004070B51F4800240421D2
:1047E0000470801E01708905C4608160FFF782FC3F
:1047F00001254FF0E02CEB02CCF88031BFF34F8F56
:10480000BFF36F8FCCF8803214484560856014493F
:104810000A68002AFCD1511EC0F80813C0F84813DA
:10482000C0F84045C0F840410E49C1F84045C0F8C5
:104830004441091DC1F84045C0F84841C0F8044151
:10484000CCF8003105604FF48271C0F844130221A6
:10485000C0F8041370BD00004A00002000B0004002
:1048600004B5004004B00040084890F9000000285A
:10487000B8BF704700F01F01012202FA01F14009A0
:10488000800000F1E020C0F80012704728030020EB
:104890000348007803280CBF012000207047000067
:1048A00014030020014840887047000014030020D2
:1048B00003480078022816BF032801200020704713
:1048C000140300200248002101704180704700005D
:1048D000140300202DE9F041164C607A002827D0FF
:1048E0004FF480718D05284608F08BFE80464FF40A
:1048F0008271284608F085FE00260746B8F1000FB1
:1049000009D00120C5F80803207920B12671E0699B
:1049100008B18047E66137B1C5F804610220C5F8E7
:10492000080300F06BFA4046BDE8F04100F058B8CB
:10493000BDE8F0815800002010B508F00CFF30B938
:1049400008F02AFF18B908F05DFF002802D00249DC
:104950000220086010BD0000340C004070B500F06B
:1049600091F900F09FFA094C4FF0804530B1FFF704
:10497000E3FF012028610420A07204E00320A0725C
:104980000120C5F804030020E07170BD580000202C
:1049900070B5124CA079E0B1E179401E814218DA7D
:1049A00000F080FA054600F069FBA179012902D9DF
:1049B000E179491CE1710DB1616900E02169411A99
:1049C000022902DA11F1020F07DC0DB1606100E08B
:1049D0002061BDE87040FFF7C1BF70BD58000020E6
:1049E0002DE9F04706464FF080454FF48671284682
:1049F00008F007FE80464FF48871284608F001FE53
:104A0000274C8246277804F1080008F06EFE10B1AA
:104A100040F2B91116E04FF0010946B1A07A03281F
:104A200005D10420A072FFF787FFC5F8109000267B
:104A3000B8F1000F18D0C5F80C61A07A042804D092
:104A400040F2CB116D2000F0A5FA08F084FE28B9E1
:104A500008F0A2FE10B908F0D5FE08B111480660B2
:104A60000220A07200F0F2F8BAF1000F08D0C5F8E9
:104A70001061A07A022801D1FFF78AFFC5F81490CF
:104A80003FB12670A07A022801D1FFF767FF00F03E
:104A9000DDF8BDE8F0470248083008F03DBE0000F0
:104AA00058000020340C00402DE9F0475F4C0027EF
:104AB0000646A761427881780078E0726271A17140
:104AC000E7714FF001084FF08045052825D2DFE857
:104AD00000F0100306202200C4F8188009E000F05E
:104AE000D1F80121284608F091FD0028F9D00220D4
:104AF000A06108F0B7FDB0B100F0EEF9217E01F041
:104B0000030188420FD1B07950B10220C5F80403E7
:104B100070E04748ECE74748EAE740F23A314DE0B9
:104B200000F0AEF966E0C5F80C804FF4827AC5F863
:104B30000471A069C5F8180508F0F9FD40B908F03E
:104B400000FE28B908F014FE10B908F025FE38B1AF
:104B50004FF08050D0F844023749C0F3423008602B
:104B600008F0E5FD40B908F0ECFD28B908F000FEBA
:104B700010B908F011FE18B12F491031C1F80080AA
:104B8000C5F808800220C5F80403B07990BBD5F8B9
:104B9000040310F0020F0FD0DFF8A090D9F8001036
:104BA000C94341F3001101F10108D9F8001041F0A7
:104BB0001001C9F8001007E040F2FB216D2000F061
:104BC000E9F900BF00F010FB5146284608F019FD36
:104BD0000028F7D000F054F9B8F1000F05D1D9F84A
:104BE000001021F01001C9F800100220C5F80803D8
:104BF000C5F80471A07970B1307860B900F052F94D
:104C0000064600F03BFA6FF0004116B1C4E904100B
:104C100001E0C4E904010121284608F0F7FC08B1CD
:104C200000F03AF9A772BDE8F087000058000020B4
:104C300001000200010003003C05004010ED00E00F
:104C40000148C089704700005800002010B5EFF3FC
:104C5000108472B60A48417829B14178491E4170E2
:104C6000417829B108E04FF48E716D2000F092F97F
:104C7000807808B900F024F9002C00D162B610BD8C
:104C80005800002010B5EFF3108472B60648417842
:104C9000491C41704078012801D108F0CEFC002C5D
:104CA00000D162B610BD000058000020054810B5C4
:104CB000C17821B100210171C170FFF7C7FF002049
:104CC00010BD00005800002070B50C4CE17861B9AF
:104CD0000125E570E061FFF7D5FF00F0E3F830B1A2
:104CE000E06910B180470020E061002070BD4FF006
:104CF00080402571C0F80453F7E7000058000020F9
:104D00002DE9F04105006FF015003FD02978042906
:104D10003CD8002969783BD0002937D1A9780029EF
:104D200034D1002008F038FC002008F028FC4FF0B7
:104D300080484FF0FF31C8F808130026C8F800611A
:104D4000C8F80461C8F80C61C8F81061144C6670AA
:104D5000A888A08108F068FC012708B1E770677097
:104D60000121404608F052FC08B100F095F840F2ED
:104D7000F550E0812846FFF797FE6772002008F0A3
:104D8000FEFB4FF0E0213046C1F80071BDE8F08134
:104D90000029FBD02029F9D8A9782129C1D9F5E724
:104DA000580000200148808970470000580000200A
:104DB00010B50D4808F099FC0B49083948B101209D
:104DC00008704FF0E021C1F80002BDE81040FFF785
:104DD00059BF887A022801D1FFF7C0FDBDE8104015
:104DE000014808F099BC0000600000200248807A69
:104DF000002800D00120704758000020F8B51F4D52
:104E0000E87A00280FD1287E00F0030008F01AFC91
:104E1000002808D0EFF3108172B6FFF7E7FF18B152
:104E2000002900D162B6F8BD0126AE7201B962B6A2
:104E300018204FF08044C4F80803A6614FF4207096
:104E4000ADF80000BDF80000411EADF80010F9D229
:104E50000027C4F80C71C4F810710848083008F035
:104E600057FC2F70FFF77AFD6661687900F07F00CC
:104E7000C4F838051820C4F80403F8BD5800002011
:104E800010B5044C207E00F0030008F0DBFB002886
:104E9000F8D010BD5800002001490120087070476B
:104EA000290300204FF08040D0F8000118B90348D2
:104EB0000078002800D0012070470000290300205E
:104EC0004FF08040012141600021C0F800110148ED
:104ED00001707047290300200248006800F00300B9
:104EE000704700001C04004010B531B1012907D003
:104EF00040F2023105A000F021F8D0F8140401E0DE
:104F0000D0F8080400F0010010BD00006E72665F6A
:104F1000636C6F636B2E6800BFF34F8F05480168A9
:104F2000054A01F4E06111430160BFF34F8F00BFF8
:104F3000FDE700000CED00E00400FA0572B6034A3C
:104F4000526802B19047FFF7E7FF000078000020A9
:104F5000064810B50021016001210160084608F0F3
:104F600098FBBDE81040012008F086BBFC1F004004
:104F7000074810B501214160891EC0F808130C20B4
:104F800008F087FBBDE810400C2008F075BB00005E
:104F900000C000400EB572B60F4A5568D5B1002268
:104FA00003466E460A2403E0B0FBF4F0521CD2B272
:104FB0000028F9D1B05409E0B3FBF4F004FB103041
:104FC000B3FBF4F3521ED2B23030B054002AF3D106
:104FD0003046A847FFF7A0FF780000202DE9F041F8
:104FE000184C0646174660780D4618B14FF0FF3052
:104FF000BDE8F081FCF7E6FB06B9134E676025704B
:10500000FFF7A6FFFFF7B4FF3046FFF779FE060073
:10501000EED1FEF777FEFFF7F1FE08F0FDF9284626
:1050200008F02AFB0120002D09DB05F01F0100FA22
:1050300001F16A09920002F1E022C2F800116070E9
:105040003046D5E778000020B4D60000014840780B
:105050007047000078000020074890F90000002801
:1050600009DB00F01F02012191404009800000F19E
:10507000E020C0F800127047780000202DE9F041D0
:1050800001264FF0E02231034FF000084046C2F8FD
:105090008011BFF34F8FBFF36F8F164CC4F8000120
:1050A0000C2008F015FB144D2868C04340F300178E
:1050B000286840F010002860C4F8046326607F1C54
:1050C00002E000BF00F090F8D4F800010028F9D009
:1050D0001FB9286820F0100028600848056866603D
:1050E000C4F80863C4F800810C2008F0F1FA2846DF
:1050F000BDE8F08100C0004010ED00E008C50040B0
:1051000010B5024605200C4904E000BF01EBC003C6
:105110001B7933B1401EC0B2F8D248216920FFF795
:1051200039FF41F8302001EBC00100224A718A7139
:1051300001220A7110BD0000E40F002010B50528FF
:1051400001D3582106E00A4901EBC0000179012989
:1051500003D059216920FFF71DFF41798279491C4D
:10516000C9B28A4200D04171BDE81040FFF774BF58
:10517000E40F002070B505250E4E0F4C16E0217887
:1051800006EBC1000279012A08D1427983799A425B
:1051900004D04279827156F8310080472078401C53
:1051A000C0B22070052801D3002020706D1EEDB222
:1051B000E5D270BDE40F00202A03002000B508F0FE
:1051C000B6FA40B908F0BDFA28B908F0D1FA10B91A
:1051D00008F0E2FA08B1024800BD024800BD000034
:1051E0000C05004000E7014010B508F0D5FA30B3D7
:1051F000EFF31080C8B1002172B61248026803684C
:10520000C2F3001243F0100303604FF0E023D3F821
:105210000042D3F804321C4300D040BF20BF00BF7F
:1052200000BF00BF00BF12B105E00121E4E7026842
:1052300022F010020260002900D062B610BD20BF2B
:1052400010BD000010ED00E001490120887070479A
:1052500080000020E5D900001DDA000007DA000018
:10526000F5D9000001DA0000EFD90000E3D9000011
:10527000E1D9000019DA00000DDA0000FBD90000C6
:10528000E9D90000DBD90000D3D90000D7D900004C
:10529000CDD9000001480068006800479400002054
:1052A000014800684069004794000020014A1268E4
:1052B000D26810479400002001490968C96A08476C
:1052C0009400002001480068006900479400002015
:1052D000014A126892681047940000200149096849
:1052E000496A08479400002001490968896A08470B
:1052F00094000020014B1B685B6818479400002055
:1053000001480078704700002B0300201FB5144CA3
:10531000207A8DF80100E0798DF80000A079ADF8D1
:1053200004006079ADF80200684606F095F808B10F
:10533000832110E0E068029002A806F0A3F808B10B
:10534000872108E007480068039003A80BF0C7FC1A
:10535000002803D08B21032000F0ECF81FBD0000D3
:105360000C1000204056000010B528B1142204494A
:1053700008F052FA002010BD6FF0150010BD0000BB
:105380005C56000070B503006FF02C0003D12E4C6A
:1053900063780BB1801170BD01B36FF015058AB34E
:1053A0002A4B0C294BD2DFE801F04A06090C1A1DE2
:1053B000252E2031363B1078187035E01078587063
:1053C00032E09078F0B1D078E0B110781B2836D375
:1053D00050781B2833D31068C3F8050024E0106808
:1053E000D86021E0107898701EE011780029D2D1A1
:1053F000D97019E0E07810B1107802281FD3107826
:10540000187411E01BE0108858820DE01178002913
:10541000C1D1197108E01078022810D3187503E083
:1054200011780029B7D1597501220849002008F0E8
:105430000FFBB0F5803F04DB6FF00B0070BD28461A
:1054400070BD0121A17070BD980000200C100020DB
:1054500070B50C46050019D0C4B100F025F9C0B1F3
:105460002846FFF74DFE0C4D00220C4928702046BF
:1054700008F0EEFA0CF06BF80021287806F04AFAF2
:10548000FFF744FF01206870002070BD6FF0150029
:1054900070BD4FF0FF3070BD980000200C10002050
:1054A00030B587B005000CD0FFF7D0FD4FF0FF34CA
:1054B00020B1FFF777FCB0F5FA7F05D9204607B099
:1054C00030BD6FF01500FAE7154C1648656000F026
:1054D000F5F900206070A070E0700146182268465F
:1054E00008F014FA18221049684608F095F91822B5
:1054F00069460E4808F090F9EFF3108472B66FF029
:105500000C0000F057FD0A4800F022FE18B19E2161
:10551000032000F00FF804B962B60020CFE70000C6
:10552000980000200D530000445600000C1000208D
:10553000D55600000EB572B6154A5568DDB1002289
:1055400003466E460A2403E0B0FBF4F0521CD2B2CC
:105550000028F9D1B0540AE0D8B2B0FBF4F7B3FB9D
:10556000F4F304FB1700521ED2B23030B054002ABC
:10557000F2D13046A847BFF34F8F06480168064A6C
:1055800001F4E06111430160BFF34F8F00BFFDE7FD
:10559000980000200CED00E00400FA05064810B564
:1055A00081784078014302D04FF0FF3010BD06F003
:1055B000CFF9002010BD000098000020064810B56B
:1055C00081784078014302D04FF0FF3010BD05F0E4
:1055D00071FF002010BD000098000020074810B5A2
:1055E00081784078014302D04FF0FF3010BD0BF0BE
:1055F00043FD0BF051FD002010BD0000980000207D
:10560000064810B581784078014302D04FF0FF3052
:1056100010BD06F0AFF9002010BD0000980000207A
:10562000064810B581784078014302D04FF0FF3032
:1056300010BD0BF031FD002010BD000098000020CF
:105640000100000001010100001B1B03020000001B
:105650004C1D000003001F0000000000295C92F1B7
:10566000368192D1B7A9F0F199E94C191F23834AE9
:10567000054A10B5526812B1BDE81040104792219A
:105680000420FFF757FF000024100020054A10B542
:10569000926812B1BDE81040104798210420FFF72E
:1056A00049FF0000241000200548016829B1416825
:1056B00019B1806808B101207047002070470000D0
:1056C0002410002002490DC881E80D000020704719
:1056D00024100020F8B5124C0026256811E000982F
:1056E000022802D003280CD106E0206810B1002067
:1056F000266005E028210CE0206868B101202660C2
:10570000A847684600F0F6FC0028E8D0052805D038
:1057100035210420FFF70EFF2D21FAE7F8BD000028
:10572000A00000207CB51F4C0546207840B1A2782F
:10573000611C2846921C08F06FF80020207021E0C0
:10574000194801F043FF00281DD0174C207811287C
:1057500004D10A213E2008F006FA18B12078082862
:1057600005D009E01049284608F006FC0AE00521AA
:105770003E2008F0F8F938B10B49284608F04FFAF6
:10578000002800D001207CBDA088ADF8000001A950
:10579000684608F020FD0028F5D09C210820FFF77E
:1057A000C9FE0000C2110020C010002070B50A78A8
:1057B00082703AB3012A25D81323037000230AE02C
:1057C00001EB430400EB4305A678EE706488240ADD
:1057D0005B1C2C71DBB29342F2D300230BE000BFC1
:1057E00001EB430500EB43042E796671AD882D0A69
:1057F0005B1CA571DBB29342F2D3012101EB820065
:10580000C0B270BD002070BD402803D2401EC1B29E
:10581000054805E0FF2805D04038C1B202480830ED
:1058200008F0D4BB01207047A4000020401EC1B284
:10583000014808F0CBBB0000B40000200249026818
:105840000A61406848617047A40000200549026869
:105850000A60406842F48C220A60034A10434860A0
:1058600070470000A4000020F807400202490268C7
:105870008A604068C8607047A400002007484FF065
:10588000FF3100220160C90C416000F108011F20B6
:105890000A604A600831C1E900027047A400002094
:1058A00010B5FFF7EBFF0BF060FB04460248006801
:1058B00000B18047204610BDBC00002001490860AF
:1058C00070470000BC0000200221018041800021BF
:1058D00001712921417149F25C21C1800149816036
:1058E00000207047F13681923EB50446694608F0C3
:1058F000C1FF70B140F25A2108E000BFBDF80400BA
:10590000214600F0ABF820B140F25F211720FFF7ED
:1059100011FE684600F052F80028EFD03EBD0000AE
:1059200010B5022804D34FF4D6711720FFF702FEFA
:105930000149085C10BD000030100020F8B50500DA
:10594000009510D00026087849780446A14200D975
:105950000C46EA1C22F00302AA4206D040F279115A
:105960001720FFF7E7FD0126EDE7134F3870797038
:105970003146684600F0EEF800210B460098C01C46
:1059800020F0030000906EB907EB8102D060002088
:1059900006E000BFD2F80CC04CF82030401CC0B26A
:1059A000A042F7D30098491C00EB8400C9B20090D4
:1059B0000229E3D3401BF8BD3010002070B5044627
:1059C00009F007F908B1102070BD257800F0FEF845
:1059D00002460C48618800EB85000EE0C36853F86E
:1059E000213043B14A1C6280A180C06850F8210078
:1059F000A060002070BD491C89B29142EED3618045
:105A0000052070BD301000202DE9F04121B10129A1
:105A100002D00020BDE8F0810F4C00273B464FF636
:105A2000FF7604EB810514F801C00AE0DC19D5F813
:105A30000CE0A4B25EF824E0BEF1000F04D05B1CC1
:105A40009BB29C45F2D8344604802046B442E0D054
:105A5000BDE8F04100F034B8301000202DE9F041ED
:105A60000646A0F57F400C4643F20207FF3820D0DF
:105A7000022C02D30720BDE8F081304600F05AF82E
:105A8000050016D00C48294650F82420304690478F
:105A90000A48002100EB8407F86840F826102046E9
:105AA00000F08AF802462946786808F0C2FE002015
:105AB000E1E73846DFE70000EC5B00003010002033
:105AC0002DE9F04190460D46074608F0E4FE48B146
:105AD000164800EB8506F06850F8270028B14FF40F
:105AE0009D7115E040F2391112E0706800281AD05B
:105AF000284600F061F80146706808F042FE040094
:105B000010D0F068022D40F8274004D340F2451130
:105B10001720FFF70FFD06484246214650F8253072
:105B2000384698472046BDE8F0810000301000203C
:105B3000E45B000070B50C46054608F0ACFE00289A
:105B400005D0034800EB8400C06850F8250070BD04
:105B5000301000202DE9F843164E884605460024F3
:105B60002868C01C20F003002860204600F024F8BC
:105B7000315D4843B8F1000F01D0002200E02A68EF
:105B80000146009232B100274FEA0D0008F02AFECC
:105B90001FB106E001270020F8E706EB8401009A18
:105BA0004A602968641C0844E4B22860022CD7D3F8
:105BB000BDE8F88330100020034931F810004FF69B
:105BC000FC71C01C08407047E05B00000349087886
:105BD0004978884200D20846704700003010002003
:105BE000A0021001ABE80000ABE80000FB060100DA
:105BF0001BFA00002DE9FF4F274C064681B02068B4
:105C00009A46934658B1017AB14203D9406850F898
:105C1000260040B143F2020005B0BDE8F08FA52197
:105C20001820FFF787FC1946029808F058FE8046B6
:105C300058460E9908F049FE054608EB0500001D80
:105C400087B22068A1463946006808F09AFD040032
:105C50001FD0678025802946201D0E9D07465A4685
:105C60000123009508F0ECFC2088414638440A23C3
:105C7000029ACDF800A008F0E3FC2088C11938464C
:105C800008F00FFDD9F80000406840F826400020D9
:105C9000C2E70420C0E70000C000002070B5144C2B
:105CA00023688BB1197A814212D95A6852F82010B0
:105CB00071B1002542F820504A88186808F0B9FDF3
:105CC000216800200A7A0CE0C8211820FFF732FC76
:105CD00043F2020070BD4B6853F8203033B9401CCA
:105CE000C0B28242F7D8086808F098FD002070BD65
:105CF000C00000202DE9F0410D46040090464FF011
:105D0000000609D00027E01C20F00300A04205D0C7
:105D100086211820FFF70EFC0127F4E7CDB11146CC
:105D2000002008F05FFD0C3000EB85068FB90A4FAC
:105D300004F10C00AA003C602572606000EB850055
:105D400020600021606807F0E1FD4146386808F0F6
:105D500049FD3046BDE8F081C000002070B5084D17
:105D6000286800280AD0002404E02046FFF796FFA8
:105D7000641CE4B22868007AA042F6D870BD000026
:105D8000C0000020094910B502460968002049B149
:105D90000B7A934205D9496851F82210002900D0A6
:105DA000081D10BDEE211820FFF7C4FBC000002025
:105DB0000A4910B502460968002059B10B7A93428E
:105DC00007D9496851F82210002902D031F8040B94
:105DD000084410BDFC211820FFF7ACFBC0000020D8
:105DE00070B51E4B456804460022A1B101206070C9
:105DF000588881085FF0000004EB400304EB800644
:105E00001A83198400FB015373602318401C1A7510
:105E10000428F1D370BD62705FF0000004EB400114
:105E20000A830A8404EB80014A602118401C0A7529
:105E30000428F3D35888B0F5FF7F01D2460800E06C
:105E4000FF2608F0C0FD656020842918A1606684E3
:105E5000E560A0842161E68470BD0000C4000020DC
:105E60002DE9F04170B100251144CCB2254EC11C82
:105E7000002721F003013470814205D04E21092012
:105E8000FFF758FB0125EFE71F2B04D84FF6FF71F2
:105E900001EA830109E05900FF2B0CD903F1FF024D
:105EA000B2EB430F00D2114689B24FF6FC72C91C07
:105EB000114035B107E07C22B2EB430FF4D37C21D3
:105EC000F2E77060718004EB840207EBC2030022EA
:105ED00076684FF0010C0DE04DB902EB820700EB44
:105EE000030E06F837C006EBC707C7F804E0521CDC
:105EF0000B44D2B2A242EFD3DB1D23F00700BDE872
:105F0000F0810000C400002070B5104A00205168E4
:105F1000127814E000EB800311F833306BB100EB22
:105F2000800011EBC0040CD00025A5700121204693
:105F3000FFF756FF2570204670BD401CC0B290424E
:105F4000E8D3A9210920FFF7F5FA0000C4000020DA
:105F5000044810B54088840808F035FD844200D319
:105F6000204610BDC400002030B50D490120486016
:105F7000821EC1F808230B4988600023C1F8003253
:105F8000C1F80823084C2360251D28608860C1F8EB
:105F900008232360286006490448086030BD0000DB
:105FA00000E0004000F0004000F500400000F63F37
:105FB00008F5014010B50446FFF7D6FF08F0D6FDFE
:105FC00000F088F8054904480860204600F0B8F859
:105FD000BDE8104000F0D0B80000F63F08F50140E1
:105FE0002DE9F84F8246384807F07FFBDFF8D8B03C
:105FF00028B101260BF10100FF21017000E000260D
:106000004FF48075314C4FF000082F1D0121616065
:10601000C4F80081C4F80481C4F804A52160DFF845
:10602000B0901CE0D9F80000C00618D50E2008F08A
:10603000ACFDEFF31080009072B603212046C4F847
:106040000413294608F0AEFD30B93946204608F061
:10605000A9FD08B9FFF7C8F8009800B962B629464B
:10606000204608F09FFD28B93946204608F09AFDE1
:106070000028D7D03946204608F094FD0028C5D125
:1060800006BB9BF801108DF80010009900919DF857
:10609000001009B1012500E000250BF1010080F896
:1060A00000800320C4F80803C4F80481C4F8008108
:1060B0000E2008F06AFD044807F02EFB15B11120F0
:1060C000BDE8F88F0020FBE72C03002000E0004033
:1060D00010ED00E010B5064807F01AFB18B12721B3
:1060E0001D20FFF727FA02480021417010BD000073
:1060F0002C03002070B511490A68EAB100231D463F
:1061000001244A68521C4A60092A00D34D600E7966
:1061100004FA06F20E6816420BD0EFF3108372B643
:106120000C6894430C6003B962B6496801600020B2
:1061300070BD5B1C092BE4D3052070BDCC00002092
:10614000024800210160416070470000CC0000203F
:1061500010B5084C617809B10F2010BDFEF7D0FFD3
:106160002070FF2801D0002010BD78211F20FFF7EC
:10617000E1F900000000002001490020487070474C
:10618000000000200648074A818C5288914204D1C1
:1061900090F8220008B100207047012070470000ED
:1061A000C4120020180300200149488070470000F5
:1061B000180300200848094A818C5288914209D16D
:1061C0004FF6FF71818410F8221F19B10021017070
:1061D0000120704700207047C412002018030020DF
:1061E000074810F8221F012907D001210170054836
:1061F0000349008888840120704700207047000010
:10620000C4120020180300200649074B8A8C5B88C3
:106210009A4205D191F8222012B101600120704705
:1062200000207047C41200201803002009498A8CFE
:10623000A2F57F43FF3B02D00021016007E091F807
:1062400022200449012A02D0016001207047002069
:1062500070470000C4120020014908807047000008
:10626000180300200549002081F822004FF6FF7036
:10627000888403490880488070470000C4120020C9
:106280001803002005498A8C824205D1002081F83C
:1062900022004FF6FF70888470470000C41200206F
:1062A0000A4A10B1012807D00EE0507860B1D2F848
:1062B00002000860D08804E0107828B19068086077
:1062C0009089888001207047002070472E030020AD
:1062D000084A012338B1012804D11370086890607E
:1062E00088889081704753700868C2F802008888D7
:1062F000D08070472E030020064910B1012802D03B
:1063000005E0487800E0087808B1012070470020D7
:10631000704700002E0300200149087770470000F5
:106320007A0B00200148C07870470000D40000209C
:106330000148007970470000D40000200846002181
:1063400041701A2100F8041B0E22014907F064BABB
:10635000880B002010B5044600F052F918B1C22194
:106360002720FFF7E7F80348012109F026F8024843
:10637000C46210BD580B0020D40000200149012048
:1063800088717047D40000202DE9F0415E4C069DD5
:106390002678002E6BD1002A69D0002B67D0002D03
:1063A00065D0C4E90E0104F11406002086E82C0033
:1063B000A0716071E070A0702071A081E08100F098
:1063C00057F9064600F04EF9054605F035FF05F091
:1063D0008DFC95F9720005F0B3FF05F11C0006F085
:1063E00085F8686906F078F896F8240006F0B2F8A7
:1063F00004F13800406890F8C60108B105F09CFE31
:1064000095F86F10012005F0DBFD002875D03F489E
:1064100005F042FE2888FFF7CBFC20632888FFF7B1
:10642000B1FC606378363A488ECE00F1080888E8FF
:106430008E0056F8041BC0F8211056F88C19C0F8CD
:10644000251000F099F90146A88F08F027FD298F43
:10645000814200D208462072A04695F86F10B5F828
:106460004200377DB5F84040082904D102E04FF4DE
:106470008D7146E0042108F011FD0FB9001D80B2B6
:10648000844200D22046C4B288F80940317D0029F8
:1064900002D000BF4FF00401214488F8071014D047
:1064A0001B484FF0010700F108000776D6E91C12DF
:1064B000C0E9041295F86F0008F005FC1449034682
:1064C00022460831384605F07DFB012000F09AFB9A
:1064D00010480068032812D00B2810D00C480E2258
:1064E0000021523007F012FA0948B1885230418039
:1064F0002988018096F824100171BDE8F08140F2EE
:10650000D5112720FFF716F8D4000020046E0000F4
:10651000280B0020501500402DE9F047054600F0FB
:10652000A7F8324E04464FF00008706A47780DB164
:10653000012D01D186F8018070784FF0010950B12A
:1065400001281AD0022834D0032848D040F21D4137
:106550002720FEF7EFFF012D32D000F0F9F8394681
:106560000122706B07F009FF28E000BF84F8088063
:1065700031E000BF84F808902DE0012D08D000F034
:10658000E7F839460022706B07F0F7FE022D0BD0BA
:10659000D4E91C01401C41F10001C4E91C01207A2E
:1065A000012803D084F80890BDE8F08784F80880BB
:1065B000FAE7012D04D0706B08F0DEF8022DF3D05D
:1065C000D4E91C01401C41F10001C4E91C01207AFE
:1065D0000128CFD1CAE7BDE8F04701F0A5B8012DE9
:1065E000E2D0706B08F0C8F8F5E70000D400002096
:1065F0000248C089C0F3802070470000D40000200A
:106600000448007808B10C2070470349002008773F
:1066100070470000D40000207A0B00200C4810B511
:10662000017849B100F138010078022808D040F221
:10663000F1112720FEF77EFFBDE8104000F0FEB903
:106640004868D0F8D801BDE8104005F02DBD000025
:10665000D4000020024A9389034393815269104772
:10666000D400002001484068704700000C01002061
:1066700001484068783070470C010020014A002131
:1066800052691047D400002070B5FFF7F1FF0446AF
:10669000FFF7E8FF0546214608F091FC95F82A101F
:1066A000012912D1002810D008482A88416801F534
:1066B00096704281627A0273A27A4273182200F0C5
:1066C00061FFBDE8704001F02FB870BD0C010020E3
:1066D00070B50546012918D8124CA1698847A0B1A8
:1066E000607990B9E5B904F110000178C80605D4C5
:1066F000E06A0078C00601D4012000E00020A26A10
:106700002AB962891AB1C90601D4012070BDA189D4
:106710008A0703D5226AD278022A01D00843F4D12D
:10672000002070BDD400002030B5084BDD881C89E6
:106730002AB108B905B914B15889401C588111B162
:106740006D1CDD8030BD641C1C8130BD7A0B0020C7
:1067500010B5084CA06A38B16289616AD21C07F092
:106760005BF8A06A606210BD40F263412720FEF72B
:10677000E1FE0000D400002010B5FFF773FF0446CF
:10678000FFF776FF0146427B1548242A0ED0897B0D
:1067900024290BD01F2A0DD0202A0BD022290FD05C
:1067A00094F86E00042800D1082010BD406890F8CD
:1067B00076120EE0222903D0406890F8260105E009
:1067C000416891F8260191F86710084008F071FAC5
:1067D000014694F86E00BDE8104008F082BA00004F
:1067E0000C0100202DE9FC5F8B460746FFF740FFB8
:1067F0004FF00009614C05468DF80090CDF80490EB
:1068000020784E46022804D040F2EA412720FEF7C5
:1068100091FEA07B400606D44020FFF72FFFE089C1
:1068200040F04000E081287DDFB380B105F098FAA8
:1068300005F072FA58B9606A417841B10078297A56
:10684000C0F3C000884202D10120A07092E0606ACB
:106850004178618121B1606B07F05BFFA06200E0CD
:10686000A662E08940F48070E081606AE97900788E
:10687000C0F38000884207D001A800F075F9E089D4
:1068800040F48060E08101E04FF00109606A297AFC
:106890000078C0F3C00088420ED1684600F026F9A7
:1068A0000AE0FFE708B105F055FAE078401CE07017
:1068B000E08940F40070E081DFF8C0A0E87C0AF1D4
:1068C000380A88B1FFF7CEFE2D490E76D5E91A2396
:1068D000C1E9042390F86E0008F0F5F90346FB22A5
:1068E0002749304605F06EF94FF00008BBF1000F64
:1068F00004D1E1780120FFF7EBFE98B105F0D8FD57
:106900009DF8000010B10020FFF706FEA8884A4657
:106910003946FFF709FF17B1E670FFF7B5FE4FF0F4
:10692000010817E09DF8000010B10120FFF7F4FD09
:10693000002000F0A3F99DF8000010B10220FFF73D
:10694000EBFDA8884A463946FFF7EEFE17B1E67020
:10695000FFF79AFE019850B107F067FDDAF80410CE
:10696000401C06720B2200F00DFE00F0DDFEB8F1B7
:10697000000F01D000F062F8BDE8FC9FD4000020B9
:10698000300B00202DE9F0410F468046FFF770FEE6
:10699000284D04462878012804D040F2724127206F
:1069A000FEF7C8FD21780020012629B120700021C2
:1069B0000420FFF74FFEA670296A0878C0438007BD
:1069C00009D1A07978BB0220FFF744FE286A00783D
:1069D000C043800727D0286A407810B10220A071F8
:1069E00000E0A671207D90B1FFF73CFE12496D7A60
:1069F0000E76D4E91C23C1E9042390F86F0008F057
:106A000062F903462A460C49304605F0DBF837EABE
:106A1000080704D000210846FFF75AFE28B1BDE858
:106A2000F04100F00BB80320D9E7BDE8F0410020A9
:106A300000F0E8B8D4000020300B002010B505F0BD
:106A400035FA05F053F90E4CE089FFF717FEE269BD
:106A50006179A07890470B48007F68B109490E2200
:106A600001F10E0006F0D8FE06481D2200211D305F
:106A700000F088FD00F058FE0020207010BD0000DE
:106A8000D40000207A0B0020084810B500780228B6
:106A900004D040F22A212720FEF74CFD04490120B2
:106AA0000873BDE81040FFF7C9BF0000D400002004
:106AB0007A0B00200C4B30B4DB793AB9FF2B05D1AF
:106AC00090F86F2090F86E40A2420AD029B190F859
:106AD0006F1030BC184605F013BDFF2390F86E1000
